:020000022000DC
:1060000000000420A9EB0800E9EB08008101090069
:10601000EDEB0800EFEB0800F1EB080000000000DA
:10602000000000000000000000000000CDE90800B2
:10603000F5EB080000000000EDE90800F9EB0800AE
:1060400005EE0800FBEB0800A1B90800E1700400B0
:10605000FBEB0800FBEB0800D5BD0800FBEB0800DC
:10606000FBEB0800FBEB0800FBEB0800FBEB080078
:10607000FBEB0800FBEB0800FBEB0800FBEB080068
:10608000FBEB08001DE70800FBEB0800FBEB08003A
:10609000FBEB0800FBEB0800D1B50500FBEB0800AB
:1060A000FBEB0800FBEB0800FBEB0800FBEB080038
:1060B000FBEB0800FBEB0800000000000000000004
:1060C000FBEB0800FBEB0800FBEB080055F80800B1
:1060D000FBEB0800FBEB0800FBEB0800B5B3060088
:1060E000EDB9080039F30800FBEB080000000000E0
:1060F00000000000FBEB080000000000CDF80800E5
:10610000000000000000000000000000000000008F
:10611000000000000000000000000000000000007F
:10612000000000000000000000000000000000006F
:10613000000000000000000000000000000000005F
:10614000000000000000000000000000000000004F
:10615000000000000000000000000000000000003F
:10616000000000000000000000000000000000002F
:10617000000000000000000000000000000000001F
:10618000000000000000000000000000000000000F
:1061900000000000000000000000000000000000FF
:1061A00000000000000000000000000000000000EF
:1061B00000000000000000000000000000000000DF
:1061C00000000000000000000000000000000000CF
:1061D00000000000000000000000000000000000BF
:1061E00000000000000000000000000000000000AF
:1061F000000000000000000000000000000000009F
:10620000F1EE103A43F08073E1EE103A704700BFB0
:1062100010B5054C237833B9044B13B10448AFF3E0
:1062200000800123237010BD306E002000000000AC
:10623000E4150B0008B5034B1BB103490348AFF34A
:10624000008008BD00000000346E0020E4150B0043
:10625000154B002B08BF134B9D46A3F5803A002138
:106260008B460F461348144A121A70F017FA0F4B58
:10627000002B00D098470E4B002B00D098470020F1
:10628000002104000D000D48002802D00C48AFF397
:10629000008070F027F92000290068F0DDFC70F024
:1062A000FBF800BF00000800000004200000000010
:1062B00000000000306E002060EA012000000000B5
:1062C0000000000038B51B4C2368D3F8AC300546FD
:1062D0009847236800201B6F98471EF0DDF904F0F3
:1062E000EFF818F0BFFB20F017FB23685A6F12B1CC
:1062F0009369984723689B6F0BB19B69984704F09B
:10630000F7F80D4B1B681B78062B01D002F046FEF8
:1063100023682846D3F88830984701F03DFC03F005
:1063200059FF2368D3F8B83098472846BDE838406D
:106330001EF0C2B9609301203875002000000000F3
:1063400070B52DED028B01F06BFB02F0E9FF23F03D
:1063500089F96B4CC4E90A0102F01AFE20BB03F074
:1063600031FF002840F0878002F012FE002840F044
:106370008E80644C65F090FF2368C01AB0F57A7F78
:1063800000F29980604C04F07DF865F085FF236889
:10639000C01AB0F57A7F7DD818F0D6FBBDEC028B21
:1063A000BDE8704001F01EB8584D284621F004FEAB
:1063B00051EC100B6FF07CFC03462846E36321F0A0
:1063C00023FE51EC100B6FF073FC08EE100A002650
:1063D000D5F8840084ED108A85F87D606FF006F9A9
:1063E00045A3D3E900236FF06BF96FF061FC03461E
:1063F0006364686F85F86D606FF0F8F83EA3D3E9C9
:1064000000236FF05DF96FF053FC0346E364686EA0
:1064100085F85D606FF0EAF837A3D3E900236FF0E9
:106420004FF96FF045FCD5F8A430A4F86C30024663
:106430002265D5F8B40085F89D6085F8AD606FF0F1
:10644000D5F82DA3D3E900236FF03AF96FF030FCB3
:1064500007EE900AF5EE407AF1EE10FAA06636D01B
:10646000274803F08FFE012103F0FAFE03F0AAFE95
:1064700000283FF479AF02F08BFD00283FF474AFA1
:1064800000F05EFD02F084FD00283FF472AF00F0E2
:1064900009FE6EE718F0E8FC16F092F915F0C4FC5E
:1064A00065F0FAFE206018F04FFBBDEC028BBDE8F2
:1064B000704000F097BF02F06BFD28B903F05AFB63
:1064C00065F0EAFE20605DE703F056FBF8E794ED27
:1064D0000F0AF0EE480A02F06FFD07EE900A94ED05
:1064E000117AF8EEE77AC4ED1A7A77EE677AC4ED9E
:1064F000117AB5E7AFF300807B14AE47E17A843FB1
:10650000586E0020506E00204C6E00205C760020FB
:1065100038B5414C414D18F055F818F055F818F0C1
:1065200021F923F09FF894F85130032BC5E90A01B3
:1065300016D003F047FE18B194F85130032B5BD00E
:10654000374D65F0A9FE2B68C01AB0F57A7F03D9E4
:1065500094F85130032B46D0BDE8384000F042BFDC
:10656000A0686FF043F826A3D3E900236FF0A8F8E2
:106570006FF09EFB0346EB63E0686FF037F820A3F3
:10658000D3E900236FF09CF86FF092FB03462B6475
:1065900060696FF02BF81CA3D3E900236FF090F82B
:1065A0006FF086FB628A07EE902AF8EE677A034660
:1065B000C5ED137AB4F910006B646FF017F814A3EB
:1065C000D3E900236FF07CF86FF072FBE269238B54
:1065D00028652846AA64A5F86C3003F0D3FD012194
:1065E00003F03EFEA5E718F01BF865F055FE2860A5
:1065F000BDE8384000F0F6BE00F0A2FCA0E700BF06
:1066000048AFBC9AF2D77A3EFCA9F1D24D62503F16
:10661000F2A7D3F7ABE7933F689A0120586E0020AA
:106620004C6E002030B585B003F0CCFD48B9274C46
:1066300065F032FE2368C01AB0F57A7F3FD805B006
:1066400030BD234D2B68587803F0CCFD222828BF9D
:1066500022200446222200211E4870F01FF81E4905
:106660001C4822466FF0F2FF2B681B7A9B07DED591
:106670001A491B4864F036F922F0F4FF0A22014659
:10668000174864F0F3FB1749154864F02BF92246CC
:1066900001A8104903F0BAFA01A9114864F050F9B1
:1066A00001A865F09DFC0F490D4864F01BF90E4BE5
:1066B0000B4893F900100A2264F0B2FBB7E703F02D
:1066C00059FA65F0E9FD206005B030BD506E00203C
:1066D00038750020B87300207877002004B90900CD
:1066E0008CA30120F0B60A0070770020F8B5374D72
:1066F000374C22F0B7FF2B68C4E90A01002B33D0D6
:1067000065F0CAFD2B68C01AB0F57A6F2CD83149F4
:10671000314A324B3248E1642265A365606401F07E
:106720007FF92B4803F02EFD012103F099FD03F0C2
:1067300049FD80BB2B4C00F0B5FC65F0ADFD236836
:10674000C01AB0F57A7F3AD8274C03F09BFE65F06B
:10675000A3FD2368C01AB0F57A7F1FD818F0F4F9AA
:10676000BDE8F84000F03EBE2049214F0E68214AA6
:10677000701C430802EBC602A7FB03735B095A2691
:1067800017685268E76306FB13030B60226465F029
:1067900083FD2860BBE700F0D3FBCBE718F0E4FFF4
:1067A00018F062FB16F00CF815F03EFB65F074FD76
:1067B000206018F0C9F9BDE8F84000F013BE03F0FE
:1067C000DBF965F069FD2060BEE700BFE06E0020E8
:1067D000586E002000008C4300004842000096C321
:1067E0000000DB43506E00204C6E0020E46E002061
:1067F000B7600BB68CB9090010B503F0C1FC204B93
:106800001B681B78042B32D0062B36D0012B31D0DD
:10681000FFF796FD1B4C2368D3F88430984703F0AC
:10682000ADF903F063FE20F075F81DF02FFF1DF0A9
:1068300031FF2368DB69984723685A6F12B15369A7
:10684000984723689A6F12B1536998472368DB6FA2
:106850000BB15B69984701F00FFA2368D3F8B430A5
:1068600098471DF049FFBDE8104069F009BAFFF7ED
:106870003DFFCFE7FFF7D6FECCE7FFF749FEC9E7BC
:1068800038750020609301202DE9F041794C7A4F52
:1068900084B01DF003FF2368B870DB6A9847054693
:1068A000764864F023F97649744864F01BF821684F
:1068B0007248013164F068F87249704864F012F867
:1068C00023689B6A98471022014601A865F054FB93
:1068D00001A96A4864F02AF901A865F081FB6A49B8
:1068E000664864F0B3F8654843F03AFD65B167491E
:1068F000624864F061F96649604863F0F3FF296813
:106900005E480A2264F0CAFA2368624E5B6BDFF8C5
:106910008C8101A8984701A9584864F007F901A89B
:1069200065F05EFB5C49554863F0DCFF23689B6BB8
:1069300098470A220146514864F0B0FA236801A83A
:106940001B6B984701A94D4864F0F0F801A865F069
:1069500047FB4E49494864F02FF9484843F000FD91
:1069600001F0AEFA2368D3F8B030984723689B6AE9
:10697000984720F07F40706303F08CF90346642051
:10698000FB7065F095FC00F0CFFF23687871D3F8B9
:1069900080309847D8F80030B8711B78062B58D053
:1069A00003F034F8D8F800303871DA7886F85420DB
:1069B0005A7886F830205A7A1346C3F3C013C2F3CC
:1069C000801286F85C2086F85D3001F011F900F045
:1069D00043FB236800201B6F984703F097F803F0F0
:1069E00083FD23689A6F12B11369984723685B6F20
:1069F0000BB11B6998471DF047FE1FF089FF17F088
:106A0000D7FE4FF47A7065F053FC2B68012B01D050
:106A100003F0AEF803F008FD236828681B6C984764
:106A2000D8F800301B78022B07D0042B1ED0012B86
:106A30001CD0236801201B6F98471DF029FE236896
:106A40009B6998472368D3F8A830984704B0BDE8FD
:106A5000F0810A484FF4614143F02EFE17F0AAFD81
:106A60000D2386F85430D8F80030A1E71DF042FE1F
:106A7000E3E700BF60930120046000208CA30120A5
:106A80000CB9090014B909002CB9090014730A00E3
:106A900068B90900586E002078B9090038750020DF
:106AA00000207047D1ED117AD0ED116A91ED1C7A7A
:106AB00077EEE67A40F25622FDEEE77A17EE903A4C
:106AC00003F22B1393420FD8FDEEC77A17EE900A0C
:106AD000B0F5C87F0ADBB0F52F7F09DBB0F5FA6FA0
:106AE000ACBF002001207047002070470320704792
:106AF0000220704700000000D1ED117A90ED117A6C
:106B000077EEC77AF8B5FDEEE77A0C4617EE903AC5
:106B100040F2562103F22B138B422DED068B00F22F
:106B2000B9800246C06CD2ED14AA6EF071FD024627
:106B30000B4600206C496EF00BFC61A3D3E90023E7
:106B40006EF0BEFD6FF0B4F800EE100A09EE900A88
:106B50005FF054FFE06C94ED148AB0EE40AA6EF042
:106B600057FD02460B4600205F496EF0F1FB54A32F
:106B7000D3E900236EF0A4FD6FF09AF800EE100A3E
:106B800009EE100A5FF03AFF60EE488AB0EE690A3B
:106B90005FF0E8FFF0EE407AB0EE490AB0EE679A97
:106BA0005FF0E0FF20EE488AEAEE8A8AAAEE898A40
:106BB00068EE087AE8EEA87AF1EEE77A17EE900A26
:106BC0006EF026FD40A3D3E900236EF079FD6FF04F
:106BD0006FF8F0EE680AB0EE480A054660F008FB70
:106BE00010EE100A6EF014FD39A3D3E900236EF005
:106BF00067FD6FF05DF8DFED3D7A07EE100AB4EE49
:106C0000E77AF1EE10FA49D96EF002FD02460B4622
:106C100031A1D1E900016EF09BFB06460F462846E4
:106C20006EF0F6FC2EA3D3E900236EF0D9FF88B3F3
:106C3000304639466FF03CF8D4ED1D7A07EE100A65
:106C400077EE677AB2EE047AF0EEE77AF4EEC77A7E
:106C5000F1EE10FA1ED594ED1C7A07EE905AC7EEAD
:106C6000277AB2EE027AF4EEC77AF1EE10FA20D467
:106C7000B2EE0A7AF4EEC77AF1EE10FA1BD4B3EE54
:106C8000037AF4EEC77AF1EE10FA4CBF012000202F
:106C900040B200E00020BDEC068BF8BD6EF0B8FC01
:106CA00002460B46002010496EF052FB06460F4686
:106CB000B5E70320EFE70220EDE700BFAFF3008068
:106CC000399D52A246DF913FCF16AD2F5476E03F5B
:106CD000F8C1631ADCA54C400000000000207C4095
:106CE0009A9999999999B93F008056400000B44209
:106CF0000020704738B504462DED068B006C334DEF
:106D00006EF086FC02460B46E06B43EC1A2B6EF0ED
:106D10007FFC02460B46286C43EC192B6EF078FC86
:106D200002460B46E86B43EC182B6EF071FCB0EE9C
:106D30004A3AF0EE6A3AB0EE492AF0EE692AB0EE2D
:106D4000481AF0EE681A41EC100B20F0A1FF51EC4C
:106D5000100B6EF0ADFF03462367206C6EF058FCFD
:106D600002460B46E06B43EC1A2B6EF051FC0246D8
:106D70000B46286C43EC192B6EF04AFC02460B467E
:106D8000E86B43EC182B6EF043FCB0EE4A3AF0EEA1
:106D90006A3AB0EE492AF0EE692A41EC100BB0EEE7
:106DA000481AF0EE681A21F047F851EC100B6EF01B
:106DB0007FFF074B60671B6823B128462146984731
:106DC00084F87800BDEC068B38BD00BF586E0020FB
:106DD000B47300202DE9F84FDFF860A1564DDAF8C2
:106DE00034306A6B934200F09A80D5F8BC2093420D
:106DF00000F09780D5F84421934200F09480D5F8B4
:106E0000CC21934200F09180D5F85422934200F0B7
:106E10008E80D5F8DC22934200F08B80D5F8642375
:106E2000934255D0D5F8EC239A4208BF072350D09F
:106E30000027BB463E462C4622F014FCA26AB0EB6B
:106E40000208E26A61EB0209B8F10B0F0BEB0B1CB5
:106E500007EB071379F1000205EBCC0C05EBC3033C
:106E600047DA94ED1C7ADCED1C7A93F9782094F9DA
:106E70007830B4EEE77AF1EE10FAC4BFB346F0EE24
:106E8000477A9342B8BF374606F10106A8BF1346BA
:106E9000082E04F18804CFD19AF97820934233DB8D
:106EA0009AED1C7AB4EEE77AF1EE10FA0DD50BEB01
:106EB0000B1B05EBCB0090F97830934205DC1F49A2
:106EC00088226FF0C3FB012000E00020BDE8F88FAE
:106ED000062303EB031305EBC305184995F8794026
:106EE000284688226FF0B2FB85F879400120BDE882
:106EF000F88F06EB0616114905EBC60088226FF0E5
:106F0000A5FB0120BDE8F88F07EB07170B4905EB40
:106F1000C70088226FF09AFB0120BDE8F88F00239C
:106F2000D7E70123D5E70223D3E70323D1E70423DF
:106F3000CFE70523CDE700BFE86E0020B87300203F
:106F400070B5394E394D336884B0587803F04AF93A
:106F5000222828BF222004462222002128466FF042
:106F60009DFB2246324928466FF070FB33681B7A3E
:106F70009A0711D42F492E4822466FF059FB00285A
:106F80003FD02D4B1B682BB1284A2C4928489847E5
:106F900000283CD104B070BD29492A4863F0A2FC06
:106FA00022F060FB0A220146264863F05FFF264973
:106FB000244863F097FC224601A8294602F026FEE9
:106FC00001A9204863F0BCFC01A865F009F81E493E
:106FD0001C4863F087FC1D4B1A4893F900100A22E5
:106FE00063F01EFF1349124822466FF021FB002870
:106FF000C7D133681B7A9B0703D51549114863F045
:1070000025FD144A1368013B136004B070BD0F4B9B
:1070100006481B7885F86E30FFF76CFE0348FFF7D3
:10702000D9FE04B070BD00BF38750020B8730020D1
:1070300078770020F07700209C780020586E0020A0
:1070400004B909008CA30120F0B60A007077002073
:107050005CBC0900A87800200C4B1B685B7AC3F36A
:10706000C203022B06D0032B0CD03BB1084B094ABC
:107070001A607047064B084A1A607047044B074A6B
:107080001A607047024B064A1A6070473875002034
:10709000B4730020A56A0200F96A0200A16A020026
:1070A000F16C02002DE9F04FDFF834A38BB065F0EE
:1070B000F3F8DAF80030C01AB0F5FA6F40F2D68073
:1070C000DFF8F8B2DBF83430002B40F0D280BA4958
:1070D000BA4888226FF0BAFADBF8BC300BB3B84973
:1070E000DBF8B030D1E90A20DBF8B410D61A60EB37
:1070F00001070B2E77F1000313DA022E77F100035C
:1071000002DBB048FFF7F6FD9BF80131DE070DD436
:1071100003F09EF99BF8013143F001038BF8013134
:1071200004E0A549A74888226FF090FADBF84431C3
:1071300073B1A349DBF83831D1E90A20DBF83C11FF
:10714000D41A60EB01050B2C75F10003C0F21F810E
:1071500099499D4888226FF079FADBF8CC3193B1D8
:107160009749DBF8C031D1E90A20DBF8C411D31A02
:10717000029360EB01030393DDE902340B2B74F1FE
:107180000002C0F2EF808C49904888226FF05EFACE
:10719000DBF8543293B18A49DBF84832D1E90A204E
:1071A000DBF84C12D31A049360EB01030593DDE97D
:1071B00004340B2B74F10002C0F2BF807E49844876
:1071C00088226FF043FADBF8DC3293B17C49DBF8BC
:1071D000D032D1E90A20DBF8D412D31A069360EB3F
:1071E00001030793DDE906340B2B74F10002C0F2B2
:1071F0008F807149774888226FF028FADBF8643372
:107200008BB16F49DBF85833D1E90A20DBF85C1306
:10721000D31A089360EB01030993DDE908340B2BC3
:1072200074F1000260DB64496B4888226FF00EFA4B
:10723000DBF8EC338BB16249DBF8E033D1E90A20AB
:10724000DBF8E413D31A009360EB01030193DDE94B
:1072500000340B2B74F1000232DB57495F4888225F
:107260006FF0F4F965F018F8CAF800000BB0BDE84B
:10727000F08F5349DBF82830D1E90A20DBF82C10D5
:10728000B2EB030860EB0109B8F10B0F79F10003D1
:10729000BFF61DAFB8F1020F79F1000302DB5846CB
:1072A000FFF728FD9BF87930DF073FF515AF03F0B6
:1072B000CFF89BF8793043F001038BF879300BE776
:1072C000022B74F1000302DB4448FFF713FD9BF827
:1072D0003134DB07C6D403F0BBF89BF8313443F0FC
:1072E00001038BF83134BDE7022B74F1000302DB9C
:1072F0003948FFF7FFFC9BF8A933DA0798D403F06D
:10730000A7F89BF8A93343F001038BF8A9338FE763
:10731000022B74F1000302DB2E48FFF7EBFC9BF815
:107320002133D9073FF56AAF03F092F89BF8213378
:1073300043F001038BF8213360E7022B74F1000363
:1073400002DB2348FFF7D6FC9BF89932D8073FF5BC
:107350003AAF03F07DF89BF8993243F001038BF8C4
:10736000993230E7022B74F1000302DB1748FFF774
:10737000C1FC9BF81132DC073FF50AAF03F068F857
:107380009BF8113243F001038BF8113200E7022C15
:1073900075F1000302DB0C48FFF7ACFC9BF8893168
:1073A000DD073FF5DAAE03F053F89BF8893143F07F
:1073B00001038BF88931D0E628730020E86E0020A5
:1073C000586E0020706F0020F86F00208070002041
:1073D000087100209071002018720020A072002017
:1073E000B07300202DE9F04F634D6A6B8BB092B102
:1073F000624AD2E90A43EA6A0992AA6AA01A099A79
:1074000063EB02010B2871F1000304DB5C49882265
:1074100028466FF01BF9D5F8BC20A2B15748D5F823
:10742000B020D0E90A13D5F8B400B1EB020863EB41
:107430000009B8F10B0F79F1000304DB5049514802
:1074400088226FF003F9D5F8442192B14B48D5F862
:107450003821D0E90A13D5F83C018E1A63EB0007F6
:107460000B2E77F1000304DB4549474888226FF073
:10747000EDF8D5F8CC21B2B14048D5F8C021D0E91B
:107480000A16D5F8C4018B1A009366EB000301932A
:10749000DDE900340B2B74F1000304DB38493B4871
:1074A00088226FF0D3F8D5F85422A2B13348D5F82A
:1074B0004822D0E90A14D5F84C02B1EB020A64EB79
:1074C000000BBAF10B0F7BF1000304DB2C493048B1
:1074D00088226FF0BBF8D5F8DC22B2B12748D5F886
:1074E000D022D0E90A14D5F8D4028B1A029364EBA7
:1074F00000030393DDE902340B2B74F1000304DB7A
:107500001F49244888226FF0A1F8D5F86423B2B14E
:107510001A48D5F85823D0E90A14D5F85C038B1A19
:10752000049364EB00030593DDE904340B2B74F141
:10753000000304DB1249184888226FF087F8D5F859
:10754000EC23B2B10D48D5F8E023D5F8E433D0E907
:107550000A108A1A60EB030306920793DDE90634EA
:107560000B2B74F1000304DB05490C4888226FF0F3
:107570006DF80BB0BDE8F08FE86E0020586E00206B
:1075800028730020706F0020F86F002080700020AA
:10759000087100209071002018720020A072002055
:1075A000104B586BD3F8BC20003818BF012002B133
:1075B0000130D3F8442102B10130D3F8CC2102B11B
:1075C0000130D3F8542202B10130D3F8DC2202B1E9
:1075D0000130D3F8642302B10130D3F8EC3303B1A6
:1075E00001307047E86E002090ED017AD1ED017A0C
:1075F000B4EEE77AF1EE10FA08DCB4EE677AF1EE59
:1076000010FA14BF4FF0FF30002070470120704780
:10761000704700BF01482FF0A5BB00BFAC7400202D
:1076200008B504482FF050FC07EE900AB8EEE70AC0
:1076300008BD00BFAC740020DFED037A034820EEE4
:10764000270A2FF0D9BC00BF0000C842AC7400204C
:1076500038B5234C234D2449204663F043F928468E
:107660002FF080FB10EE100A6DF0D2FF41EC100BF2
:107670002046022163F0BAF91C49204663F0E6F97E
:107680001B49204663F02EF928462FF01DFC0A22E4
:107690000146204663F0A2FB1649204663F0D6F966
:1076A0001549204663F01EF928469FED140A2FF075
:1076B000A3FC10EE100A6DF0ABFF41EC100B20465E
:1076C000022163F093F90E49204663F0BFF920468A
:1076D00063F00CFABDE838404FF4FA7064F0E8BD8E
:1076E0008CA30120AC74002084BC090094BC090068
:1076F00098BC0900A4BC0900A8BC090080E6C547E5
:10770000B4BC0900014803212FF0ACBCAC740020CC
:10771000014830F029BA00BFC4740020014830F09D
:107720004DBA00BFC4740020014830F061BB00BFF7
:10773000C474002038B5264C264D2749204663F0F6
:10774000D1F8284630F010FA10EE100A6DF060FF04
:1077500041EC100B2046022163F048F91F492046F6
:1077600063F074F91E49204663F0BCF8284630F0F7
:1077700025FA10EE100A6DF04BFF41EC100B20467D
:10778000022163F033F91749204663F05FF9164987
:10779000204663F0A7F828469FED140A30F028FB36
:1077A00010EE100A6DF034FF41EC100B2046022160
:1077B00063F01CF90E49204663F048F9204663F057
:1077C00095F9BDE838404FF4FA7064F071BD00BF20
:1077D0008CA30120C474002084BC090094BC09005F
:1077E00098BC0900A4BC0900BCBC090000507D4441
:1077F000D0BC090001482FF01DBE00BFC47400209A
:10780000014830F0F7BC00BFF8740020014830F0A8
:10781000A3BB00BFF874002008B5DFED067A064868
:1078200020EE270A30F0C2FCBDE80840024830F0E4
:1078300029BC00BF0000C842F874002038B51F4DB5
:107840001F4C284630F088FBDFED1E7A60EE277A69
:1078500017EE900A6DF0DCFE41EC100B2046022181
:1078600063F0C4F81849204663F0F0F8284630F079
:1078700009FC10EE100A6DF0CBFE41EC100B204617
:10788000022163F0B3F81149204663F0DFF828467F
:1078900030F0B0FC10EE100A6DF0BAFE41EC100BA7
:1078A0002046022163F0A2F82046094963F0CEF891
:1078B000BDE83840FA2064F0FBBC00BFF87400203B
:1078C0008CA30120AA409B39D4BC0900B4BC090098
:1078D000E4BC09000149024830F0C4BADC9401203C
:1078E000F874002008B50E48582277212FF0F0FFD9
:1078F00008B1012008BD0A48582276212FF0E8FF80
:107900000028F6D10648602277212FF0E1FF0028F9
:10791000EFD1BDE808400248602276212FF0D8BFA1
:10792000C4740020704700BF38B52C4B2C4C1B682A
:10793000D3F89C309847002848D02A4B2360DB6856
:107940009847002836D021682748013163F01CF899
:107950002649254863F07AF823681B69984723680D
:10796000DB6998472368224A1B6A82ED000A984720
:10797000204B83ED000A64F08FFC23681E4A9B694C
:107980009FED1E0A106098471D491E4A1E4B81ED4F
:10799000000A82ED000A83ED120A64F07DFC236880
:1079A0001A4A1B4C1D7820600021116051609160C3
:1079B000284638BD174B2360DB6898470028C2D1A2
:1079C000154B2360DB6898470028BCD1002513497C
:1079D0000548256063F03AF8284638BD60930120D9
:1079E000A8740020106000208CA30120E8BC0900CE
:1079F00084740020907400208C74002000507D441A
:107A00008074002094740020586E00209874002028
:107A100088740020346000205860002014BD0900E4
:107A20002DE9F84F4E4C23682DED028B002B00F012
:107A300087804C4D64F030FC2B68C01AB0F5A77FEE
:107A400066D323689FED480A9B69DFF844A1474F3E
:107A5000DFF840B1464E98479AED008A87ED000A5C
:107A600030EE488A8BED120A64F016FC29689FED0F
:107A7000416A414B3268DFED416A401A07EE900AD5
:107A8000F8EE677A03EB820288EE277A67EE067AD1
:107A9000C2ED007AD3ED017A93ED006A93ED027A9C
:107AA00077EE867A77EE877A67EEA67A17EE900AF7
:107AB0006DF0AEFD24A3D3E90023804689466EF025
:107AC0008FF848B122A3D3E90023404649466EF01F
:107AD00069F808B1002008E01FA3D3E9002340465D
:107AE00049466DF0EDFD6EF0E3F83B68CAF80030F2
:107AF000CBF8580064F0D0FB3268214B286001328B
:107B000083FB0213A3EBE27303EB4303D31A33604B
:107B10001C4D64F0C1FB2A6840F6B833801A9842C5
:107B20000ED92368DB6998472368174A1B6A82EDE0
:107B3000000A9847154B83ED000A64F0ADFB2860FE
:107B4000BDEC028BBDE8F88F9A9999999999B9BFC4
:107B50009A9999999999B93FDE567A6D369B684002
:107B6000A87400208874002000507D448074002098
:107B7000A474002000007A4498740020ABAAAA3EA6
:107B8000565555558C740020847400209074002044
:107B900094740020586E0020024B1B680BB15B6987
:107BA00018477047A8740020014B93ED000A7047F6
:107BB00080740020014B93ED000A7047847400200C
:107BC000014B93ED000A70479074002008B50548FA
:107BD0002FF0C6F804482FF093FBBDE80840034897
:107BE00030F03EB9AC740020C4740020F87400205A
:107BF00010B5094C2368D3F88C30984723680020CF
:107C0000D3F890309847054B83ED000A64F044FBAD
:107C1000034B186010BD00BF609301200875002061
:107C200000750020014B93ED000A70470875002095
:107C3000024B1B680120D3F8903018476093012055
:107C4000024B1B680220D3F8903018476093012044
:107C500000B5084B1B6883B0D3F8903003209847D9
:107C6000FCEEC07ACDED017A9DF8040003B05DF81A
:107C700004FB00BF6093012070B51F4D64F00CFB46
:107C80002A6841F28833801A984219D91B4E33680A
:107C90000020D3F89030984710EE100A10EE104AEA
:107CA0006DF0B6FC12A3D3E900236DF099FF40B943
:107CB000134B00221A60134B1C6064F0EDFA28602D
:107CC00070BD33680220D3F89030984707EE904A91
:107CD000F4EEC07AF1EE10FAEAD5094A1368022BE5
:107CE00002DC01331360E6E70720FEF7EBFAE2E778
:107CF000CDCCCCCCCCCCFC3F0075002060930120D7
:107D0000047500200875002030B45B4A5B4B117885
:107D100057A5D5E9004500221129C3E900451A728B
:107D20003FD01B292AD010297CD0587C20F03F005E
:107D3000172940F008000BBF062501250124144631
:107D40005874012940F2011058815D72187C1C732F
:107D500055D15A7320F00F0242F00D02D9731A74F4
:107D600008461C8A43F61F72224042EA4010002255
:107D700018829A74172978D1042235E0188A9A81DA
:107D800020F47C5222F00F0242F4006242F00D0215
:107D9000052040F2017502241A8258725D81DC735D
:107DA000DFE71A8A22F47C5222F00F0242F40062CA
:107DB00042F00D02052540F601744FF400701A825E
:107DC00002225D725C819881DA73A1F11B02012AA3
:107DD00049D9102935D11A8A22F4404222F0E00212
:107DE00004211A829974002200200021C3E90601AF
:107DF000C3E908010024DA741C7530BC704720F018
:107E00000F00022440F00D000F2918745C73DC731E
:107E1000DBD1188A9A7443F61F71014041F0A0012A
:107E20001982E1E71A8A22F47C5222F00F0242F40E
:107E3000006242F00D02032540F2011440F20220DC
:107E4000BDE71C8A43F61F72A1F11200012894BFFE
:107E5000802020202240024311294FF000001A8286
:107E6000987489D086E705207BE70022BCE700BF35
:107E7000DADEBABA6100000004600020107500204C
:107E80002DE9F0410B4D0C4F05F128062C4601342D
:107E90002146384611F80129491B89B220F0D2FB4E
:107EA000B442F4D1054B1B68BDE8F0415B6E022083
:107EB000184700BF0F7500209C950120609301209A
:107EC0002DE9F041284F3B6828201B6E9847002879
:107ED0002DD0264D264E0024A1B2304620F0FAF9CE
:107EE0000134282C05F8010FF6D1224C224B2268D0
:107EF0009A420ED02149224862F0A8FDFFF704FF04
:107F000001203B681F4A20495B6E1160BDE8F041CB
:107F100018471E491A4862F0E5FC616818480A22B1
:107F200062F0BCFF6368612B15D10020E9E71849B6
:107F3000134862F0D7FC0A222821114862F0A2FF00
:107F400014490F4862F082FD0D4842F009FA1248C8
:107F500064F0AEF9BDE71149094862F077FDFFF71B
:107F6000D3FE0120CDE700BF609301200F750020F4
:107F70009C95012010750020DADEBABA80BD090098
:107F80008CA301203875002018750020CCBD090095
:107F90004CBD09006CBD090040420F00E0BD090066
:107FA000F0B5B34CB34E2068B34F036895B09B6DEA
:107FB000002198473368206893F82810036803313C
:107FC000DB6A01F003019847206800213DF042FE82
:107FD000002120683DF046FE206803689B6E9847AC
:107FE000206803684FF6FF711B6C98472068A3490F
:107FF0003DF03CFE0DF1160205AB206803920DF139
:10800000120104AA02930023CDE900211A469C49DB
:108010003DF03EFE0DF1260209AB206803920DF102
:10802000220108AA02930023CDE900211A469549AE
:108030003DF02EFE3B7820680F2B02D01A2B40F02B
:10804000F5803DF031FFBDF814300146C91A01EB4F
:10805000D17120684D103DF02BFFBDF81630BDF8F2
:10806000261002461A4402EBD272C1EB620212B22F
:1080700029B220683DF0EAFD8149206862F084FC65
:10808000814920683DF0F2FD0DF11E0507A80DF1B4
:108090001A0106AACDE90021CDE9020500231A46FE
:1080A0007A4920683DF0F4FD20683DF0FDFEBDF802
:1080B0001C300146C91A01EBD17120684D103DF00A
:1080C000F7FEBDF81E3002461A4402EBD27242F3AC
:1080D0004F0229B220683DF0B9FD6C49206862F07A
:1080E00053FC664920683DF0C1FD20683DF0DCFE90
:1080F000BDF824300146C91A01EBD17120684D103A
:108100003DF0D6FEBDF8263002461A4402EBD2728C
:1081100003EB620212B229B220683DF097FD594983
:10812000206862F031FC7B78022B96BF584A584B8E
:1081300052F82330574A88BFDB6800922021564A04
:108140000CA86FF045FB554920683DF08FFD0BAD45
:108150000DF12A00CDE901050DF12E030AAA0393C2
:10816000009200231A460CA920683DF091FD20687A
:108170003DF09AFEBDF82C300146C91A01EBD171D1
:1081800020684D103DF094FEBDF82E300246D21A04
:10819000206829B212B23DF059FD20680CA962F0A6
:1081A000F3FB2068036800211B6E98472068036872
:1081B000D3F8C830984720680368D3F8D030984780
:1081C00004461DF02DFA1CF06DFD1DF045FD1CF060
:1081D000C9FA1EF029FA1CF0B1FC3368304993F853
:1081E00029205309013B02F007020A60032B06D83D
:1081F000DFE803F0180218392A4B02221A702A4BC2
:108200001B68D3F8BC300BB11B68984764F044F886
:10821000264B186064F040F8254B024620461A6051
:1082200015B0F0BD1F4B05221A70E8E73DF03CFE8B
:10823000BDF814300146C91A01EBD17120684D1008
:108240003DF036FEBDF8163002461A4402EBD272FB
:10825000206829B242F34F023DF0F8FC084920683B
:1082600062F092FB9DE70F4B0A221A70C7E700BF2E
:1082700050FB00209873012004600020ECBE090030
:1082800064C3090070C30900C8BE09006CC30900BB
:10829000C868002038BE090028BE0900981A0A00E4
:1082A0004475002048750020609301203C75002033
:1082B0004C7500202DE9F043894FBB79093B022B17
:1082C00087B000F28680874C23782BB1642063F05E
:1082D000EFFF2378002BF9D1834E84493068DFF813
:1082E0003C92DFF83C823DF0C1FC0DF1160305AD78
:1082F0000DF1120104AA03930023CDE901153068A2
:108300007B4900921A463DF0C3FC306803684FF683
:10831000FF711B6C9847BDF81630306805331AB2F0
:1083200005219DB23DF092FC7149306862F02CFB52
:10833000F9783068002914BF4946414662F024FBB1
:10834000BDF81630306807332B441AB205219DB2B0
:108350003DF07CFC6749306862F016FB3979306883
:10836000002914BF4946414662F00EFB3B780F2BB3
:1083700032D01A2B00F09C80BDF816307A79073382
:108380001D44ADB2002A00F089802AB23068052170
:108390003DF05CFC5849306862F0F6FA574B797949
:1083A000574A3068002914BF1146194662F0ECFAAA
:1083B0003B780F2B53D00123237023782BB16420FB
:1083C00063F076FF2378002BF9D14FF47A6063F0E5
:1083D0006FFF07B0BDE8F083BDF816303068073393
:1083E0002B441AB205219DB23DF030FC454930685E
:1083F00062F0CAFAB9793068002914BF494641468B
:1084000062F0C2FABDF81630306807332B441AB256
:1084100005219DB23DF01AFC3B49306862F0B4FA88
:10842000397A3068002914BF4946414662F0ACFAF7
:10843000BDF81630306807332B441AB205219DB2BF
:108440003DF004FC3149306862F09EFAF9793068F9
:1084500001290CBF4946414662F096FA8CE7BDF807
:1084600016207B7A07321544ADB2E3B9284930684B
:108470003DF0FCFB2AB2306805213DF0E7FB2549C1
:10848000306862F081FA797A1D4A1C4B3068002905
:1084900014BF1146194662F077FA8CE71C49306820
:1084A0003DF0E4FB71E7114930683DF0DFFBE1E7A7
:1084B000BDF81630306807332B441AB205219DB23F
:1084C0003DF0C4FB1449306862F05EFAF979306817
:1084D00002290CBF4946414662F056FA4CE700BFFC
:1084E000046000204075002050FB0020E0BE090021
:1084F00040C3090018C2090004C2090044BE0900B3
:1085000040BE090058C3090000BF090034C3090078
:10851000C8BE0900F8BE09000CC209003CBE090033
:1085200010950A002DE9F04F7C4CA479093C012CF0
:108530008DB002D90DB0BDE8F08F794E1F4633786B
:108540000546894690462BB1642063F0B1FE33782E
:10855000002BF9D1734C206803684FF6FF711B6C38
:1085600098476B1C00F0EC802B466F4A0E2108A840
:108570006FF02EF90DF11E0B0DF11C0A6B492068EE
:108580003DF074FBCDE902AB0DF11A02019206AA8F
:108590000023009208A91A4620683DF079FB206864
:1085A0003DF082FCBDF81C300146C91A01EBD171C7
:1085B0004910206805913DF07BFCBDF81E300599FF
:1085C000051EB8BF0335C3EBA5052AB2206809B262
:1085D0003DF03CFB08A9206862F0D6F9BDF81E20EA
:1085E000CDF80CB00DF11A01019106A900230091FC
:1085F0000732CDF808A0ADB24D49206815441A469F
:108600003DF046FB20683DF04FFCBDF81C300146B4
:10861000C91AADB201EBD1712AB2206841F34F0102
:108620003DF014FB4249206862F0AEF9BDF81E30FF
:10863000CDF80CB00DF11A01019103EB430306A92B
:1086400003F1150200910023CDF808A039492068F4
:1086500015441A463DF01CFB20683DF025FCBDF892
:108660001C300146C91AADB201EBD1712AB22068A3
:1086700041F34F013DF0EAFA2E49206862F084F997
:10868000BDF81E302C4A07331D44ADB24B460E21B7
:1086900008A86FF09DF82AB220680A213DF0D6FAAA
:1086A00008A9206862F070F9BDF81E30224A07332D
:1086B0001D44ADB243460E2108A86FF089F82AB2D6
:1086C00020680A213DF0C2FA08A9206862F05CF92E
:1086D000BDF81E30194A07331D440E213B46ADB28A
:1086E00008A86FF075F820680A212AB23DF0AEFAAA
:1086F000206808A962F048F90123337033782BB160
:10870000642063F0D5FD3378002BF9D140F6B83002
:1087100063F0CEFD0DB0BDE8F08F00BF0460002017
:108720004075002050FB002068BE0900D4BE09003F
:108730006CBE09007CBE0900A8610A008CBE09005D
:108740000DF11E0A0DF11C090DF11A0806AF206883
:1087500050493DF08BFACDE9029ACDE9007800232B
:108760001A464D4920683DF093FA20683DF09CFB85
:10877000BDF81C300146C91A01EBD17120684FEADF
:10878000610B3DF095FB05F15535023585FB003257
:10879000A2EBE07212B220680FFA8BF13DF056FAAC
:1087A0003D49206862F0F0F820683C493DF05EFAEF
:1087B000CDE9029ACDE9007800231A4638492068AD
:1087C0003DF066FA20683DF06FFBBDF81C300146B5
:1087D000C91A01EBD17120684FEA610B3DF068FBCB
:1087E000420085FB0213BDF81E102068A3EBE27364
:1087F0005B1A1AB20FFA8BF19DB23DF027FA2849A5
:10880000206862F0C1F8CDE90189BDF81E20CDF8DD
:108810000CA00023009707322249206815441A460D
:108820003DF036FA20683DF03FFBBDF81C300146B4
:10883000C91AADB201EBD1712AB2206841F34F01E0
:108840003DF004FA1749206862F09EF8CDE90189ED
:10885000BDF81E20CDF80CA0002300970732124966
:10886000206815441A463DF013FA20683DF01CFBC1
:10887000BDF81C300146C91AADB201EBD1712068B8
:108880002AB241F34F013DF0E1F92068064962F058
:108890007BF831E7E0BE090048BE0900C8BE090008
:1088A00050BE090054BE090060BE0900F8B5334B44
:1088B0009B790A3B012B00D9F8BD314D2B78BBB118
:1088C000304C237803F0FF01002BF5D12E4B1868B4
:1088D00003681B6C98470223237023782BB1642014
:1088E00063F0E6FC2378002BF9D100232B70F8BD50
:1088F000264C2368013B042B3DD8DFE803F0262FEC
:10890000292C03001CF028F9214B1B6893F829300F
:1089100003F0E003202B24D001261E4C2378002BEB
:10892000CAD01D4F63F0B8FC227839684EF6602338
:10893000401A03FB02F39842BED9002EBCD001239B
:108940002B7063F0A9FC3860F8BD1CF0B9F9DBE7C7
:108950001BF0B2FFD8E71DF089FED5E71DF080F9C6
:10896000D2E72368013B012BD6D8FEF719FEB0FAF7
:1089700080F67609D1E71CF007FFC5E70460002008
:108980007E6000204075002050FB002044750020D0
:1089900098730120487500204C7500202DE9F04F98
:1089A000DFF8FCA2DAF80030D3F8BC3089B0054615
:1089B0000C460BB15B689847AB4BAC4A9B79AC4813
:1089C0000A3B072D0CBF15460546012B02D909B0FD
:1089D000BDE8F08FDFF8CC8298F8003033B1642026
:1089E00063F066FC98F80030002BF8D1DFF8B892FD
:1089F000D9F800003DF058FA8346D9F800003DF060
:108A000057FA83B21FFA8BFB0593002C40F0B48019
:108A1000D9F8000003684FF6FF711B6C9847954921
:108A2000D9F800003DF022F90DF11C0A0DF11A07EA
:108A300006AE0DF11E032946CDE902A3D9F80000C8
:108A400023462246CDE900673DF022F9BDF81C100F
:108A5000BDF81E20D9F80000ABEB010101EBD1718C
:108A600002EB520212B241F34F013DF0EFF82946FA
:108A7000D9F8000061F088FF059BBDF81E500294F4
:108A8000A3F1800000EBD0706D08ABF18001C5EB65
:108A90006005802301EBD1712AB2CDE90033D9F80A
:108AA0000000754B41F34F013CF002FE7349D9F8C9
:108AB00000003DF0DBF80DF11E03CDE902A3704983
:108AC000D9F800002346ADB22246CDE900673DF05B
:108AD000DFF805F1910212B2D9F8000005213DF04E
:108AE000B5F86749D9F8000061F04EFF6549D9F83B
:108AF00000003DF0BBF86449D9F8000061F044FF84
:108B00006249D9F800003DF0B1F80DF11E03CDE93E
:108B100002A35F49D9F8000023462246CDE9006749
:108B20003DF0B6F8BDF81C10D9F80000ABEB010120
:108B300005F1A60201EBD17141F34F0112B23DF0F4
:108B400085F85349D9F8000061F01EFF012388F829
:108B5000003098F8003033B1642063F0A9FB98F836
:108B60000030002BF8D1D9F800000368D3F8CC30DE
:108B7000984709B0BDE8F08F3E49D9F800003DF0B4
:108B800075F8D9F8000003684FF6FF711B6C984721
:108B90000DF11E07002307AE0DF11A0506AC1A46AB
:108BA0003C49D9F80000CDE90267CDE900453DF028
:108BB0006FF8059BBDF81C10D9F800001A46364B1B
:108BC000ABEB0101A3FB02C201EBD171520841F3EF
:108BD0004F013DF03BF82F49D9F8000061F0D4FE79
:108BE00000231A462D49D9F80000CDE90267CDE9E6
:108BF00000453DF04DF8BDF81C10059A264BD9F8FC
:108C000000005200ABEB0101A3FB023201EBD1717A
:108C100042F34F0241F34F013DF018F81F49D9F8D4
:108C2000000061F0B1FE012388F8003098F80030B0
:108C300033B1642063F03CFB98F80030002BF8D18E
:108C4000DAF80030DB6998474FF47A6063F030FB64
:108C5000DAF80030DB699847D9F8000003684FF66E
:108C6000FF711B6C984771E70460002094BE0900F7
:108C7000A0BE0900D4BE090080600020981A0A0036
:108C800078C30900C8E2090084C309004CC3090085
:108C900094C30900ACBE0900ABAAAAAAB8BE0900D9
:108CA000609301204075002050FB0020384B9B79D9
:108CB0000A3B012B00D970473648374B374A10B46E
:108CC0000468128883FB0413A3EBE47303EB4303F0
:108CD000A4EB43039C4203D042FA03F1C90751D4E9
:108CE0002D4B611C83FB01C3A3EBE17303EB430337
:108CF000A1EB43039C4203D042FA03F1C90741D4DC
:108D0000254BA11C83FB01C3A3EBE17303EB4303DE
:108D1000A1EB43039C4203D042FA03F1C90731D4CB
:108D20001D4BE11C83FB01C3A3EBE17303EB430386
:108D3000A1EB43039C4203D042FA03F1C90721D4BB
:108D4000154B211D83FB01C3A3EBE17303EB43032D
:108D5000A1EB43039C4203D042FA03F1C90711D4AB
:108D60000D4B611D83FB01C3A3EBE17303EB4303D5
:108D7000A1EB43039C4202D01A41D20702D45DF812
:108D8000044B7047064A036001231370F7E700BFE6
:108D90000460002044750020ABAAAA2A7C60002051
:108DA0007E6000200D4B9B790A2B00D070470C4B46
:108DB0001B68013B042B0ED8DFE803F00B09070505
:108DC00003001BF06DBF1DF08DBD1BF0B5BE1DF087
:108DD00065BB1CF019BC1CF03DBF00BF0460002047
:108DE0004475002078B12DE9F04F037887B08046B4
:108DF00033B1DFF840B19BF8002002F0FF061AB152
:108E000007B0BDE8F08F7047DFF82CA18946DAF88B
:108E1000000047493CF02AFFDAF8000002684FF6EC
:108E2000FF71126C9047DAF800003DF03DF80446FF
:108E3000DAF800003DF03CF8A4B285B2B9F1000FB9
:108E40004FD005AB02930DF112030DF116070193FC
:108E500004ABDAF8000000933246334641460397EC
:108E60003CF016FFBDF81410BDF81620DAF800002B
:108E7000611A01EBD171C2EB550212B241F34F01FD
:108E80003CF0E4FE4146DAF8000061F07DFD05AB00
:108E900002930DF11203019304ABDAF80000009382
:108EA00032463346494603973CF0F2FEBDF81410B3
:108EB000BDF81630DAF800006A08611A1A4401EBAE
:108EC000D17141F34F0112B23CF0C0FEDAF800005C
:108ED000494661F059FD02238BF8003007B0BDE828
:108EE000F08F0DF1160005A90DF1120204ABCDE9CA
:108EF0000210CDE90032DAF800004B464A464146FE
:108F00003CF0C6FEBDF81410BDF81620DAF80000DB
:108F1000611A2A4401EBD17141F34F0142F34F0230
:108F20003CF094FEDAF80000414661F02DFDD2E7F6
:108F3000E0BE09004075002050FB002008B50B4C36
:108F40000B4E002523786BB1306821780368A1F1BE
:108F50000201B1FA81F11B6E4909984766F090FE53
:108F60002378257066F08CFEECE700BF407500208A
:108F700050FB002001207047704700BF704700BFC2
:108F8000704700BF704700BF704700BF704700BF09
:108F9000014B1878704700BF5876002010B5242088
:108FA00062F0BEFE034B1B681BB1BDE81040DB68DE
:108FB000184710BD5877002038B510EE100A2DED77
:108FC000028BB0EE608A6CF023FB04460D4622460D
:108FD0002B46674900206CF0BBF9664B00226CF011
:108FE0006FFB002200236CF0F1FD22462B46002887
:108FF00000F0B6805CA1D1E900016CF0A9F95D4BED
:1090000000226CF05DFB6CF00BFEB5EEC08AF1EE59
:1090100010FA0446F0EE487A0CDA9FED576ADFED5D
:10902000576AB0EE677AB4EEE67AF1EE10FA77EEB0
:10903000867AF6DBDFED506AF4EEE67AF1EE10FAAE
:109040000AD49FED4F6AB0EE677AB4EEC67AF1EEBD
:1090500010FA77EEE67AF6D517EE900A6CF0D8FAA9
:10906000444B00226CF02CFB002200236CF0AEFD80
:10907000B5EEC08A002842D0F1EE10FA0CDADFED2E
:109080003E6A9FED3E7AF0EE487AF4EEC77AF1EE52
:1090900010FA38EE268AF6DB9FED377AB4EEC78AEF
:1090A000F1EE10FA0AD4DFED366AF0EE487AF4EE0B
:1090B000E67AF1EE10FA38EE478AF6D518EE100A85
:1090C0006CF0A6FA2F4B00226CF044F9294B0022D9
:1090D0006CF0F6FA6CF0A4FD2B4BB4221B6802FB7B
:1090E0000400984207D2002805DBBDEC028B274B19
:1090F000185C7F3838BDBDEC028B002038BDF1EE26
:1091000010FA0CDADFED1C6A9FED1C7AF0EE487A5B
:10911000F4EEC77AF1EE10FA38EE268AF6DB9FED10
:10912000167AB4EEC78AF1EE10FA0AD4DFED146AAB
:10913000F0EE487AF4EEE67AF1EE10FA38EE478A6D
:10914000F6D518EE100A6CF063FA0E4B00226CF0A4
:10915000FFF8084B00226CF0B3FA6CF061FDBBE73E
:109160000B49002049E700BF0000000000C0564046
:10917000008056400000E03F0000B4430000B4C34C
:10918000000034440000F03F98680020F01C0A0002
:109190000040564001481EF029B900BF5C7600200F
:1091A0002DE9F047544EDFF8749133685A6F002A66
:1091B0002DD0D36998470028336828DD5B6F1B6A80
:1091C00098470523044689F80030631CEDD02046FB
:1091D0006DF0B4F918B90D2C01D00A2CE5D1474D2A
:1091E000474F2B684748E1B2F9541EF0EBFC2B685F
:1091F000FA5C0D2A2CD00A2A18D0F92B16D001338C
:109200002B6066F03DFD33685A6F002AD1D19B6F09
:109210007BB1DB69984700280BDD33689B6F1B6AC5
:1092200098470423044689F80030CEE700232B60DA
:10923000BBE7354862F038F900284ADC334862F071
:1092400033F900284DDD314862F036F90446BCE7B9
:109250000028D2D01C1F37D42D4A126892F80880FB
:1092600018F0010F30D03A1901E0013C2CD312F86C
:1092700001192429F9D191784729F6D1254A127884
:109280001B1B042A03F1010A17D1E01C22493844B0
:109290006EF0AAFB034680B91A4AD2F8B40082F8ED
:1092A000AD306CF0A3F912A3D3E900236CF008FAF7
:1092B000002200236CF06CFCA8B9524639194FEA21
:1092C0005810012315F0D0FB16F01EFC2B68FA5C39
:1092D00091E70D4862F0F0F80123044689F8003068
:1092E00073E7BDE8F08716F017FBEDE7AFF30080FA
:1092F0007B14AE47E17A843F6093012054750020CF
:10930000587500205C760020F0D5012098D6012009
:109310003875002004600020A41A0A001C7D01207A
:10932000F0B5464C87B0FFF73BFF23781BB194F8AC
:109330007C30002B4FD10023414D42492A680B70ED
:10934000002A6CD194F84C3043B93F4B1B68002B7A
:1093500071D09B6807B0BDE8F040184794F84D30D5
:10936000002BF2D039481EF077FE394B1B88834220
:10937000EBD894F84C30002BE7D062F08DFFA36D52
:10938000C01AB0F57A7FE0D832481EF095FE044648
:1093900030481EF09DFE01462E4805911EF0B0FE9D
:1093A00002462A4804921EF07BFE03462748039398
:1093B0001EF062FE064625481EF04EFE0746DDE919
:1093C0000332059900962046019720F0C7F962F014
:1093D00063FF2860B9E794F83C30002BABD062F013
:1093E0005BFF636B40F6AC55C01AA842A3D894F853
:1093F0007C30002B9FD062F04FFFD4F88030C01A31
:10940000A84298D894F83C30002B94D062F044FFE6
:10941000A36CC01AA8428CBF002301238CE762F022
:109420003BFF2A684EF66023801A98428AD8064B82
:109430001B68002B8DD107B0F0BD00BF5C7600200B
:10944000507500205876002058770020987600202C
:1094500080680020A87600202DE9F84F804641481A
:109460008946044662F036F801E062F025F82046AD
:1094700062F01AF800282046F7DC62F00DFF394C44
:10948000394FB8F1000F40F6B835064618BF4FF413
:10949000FA6562F001FF801BA84207D35FE062F02B
:1094A000FBFE801B854206D966F0EAFB204662F08F
:1094B00003F80A28F3D1052062F0FAFEB8F1000F94
:1094C0000FD0204661F0F0FF0028E2DC40466EF04D
:1094D00083FA41460246204662F036F8204661F0A3
:1094E000F9FF4FF0000B62F0D7FE03469B1B9D4235
:1094F00020461FD961F0E0FF5FFA80FA50466DF018
:109500001DF80BF1010328B9BAF10D0F1FD0BAF104
:109510000A0FE8D1BBF1F90F0CDCBAF10A0F07F81A
:109520000BA007D09B4662F0B7FE03469B1B9D42F3
:109530002046DFD848466EF04FFA49460246384684
:109540006EF052FA0028A4D10120BDE8F88FBBF1DB
:10955000F90FEFDC07F80BA00BF1010BC3E70020BC
:10956000BDE8F88F98D601205875002001490020E9
:10957000FFF772BFAC1A0A0008B504490448FFF7A8
:109580006BFF002814BF0C20012008BDB01A0A0090
:10959000BC1A0A0008B504490448FFF75DFF00281B
:1095A00014BF0A20012008BDCC1A0A00DC1A0A00E8
:1095B00008B504490448FFF74FFF002814BF0E20E8
:1095C000012008BDEC1A0A00FC1A0A0008B505497A
:1095D00005480D2261F0B8FFBDE80840FA2062F0AE
:1095E00067BE00BF0C1B0A0098D601203E483F49C9
:1095F0002DE9F0410E22074661F0A6FF62F04CFE15
:10960000DFF8EC800646002562F046FE03469B1B11
:10961000B3F5FA6F38460ED261F04EFFC4B2204661
:109620006CF08CFF6B1C002847D10D2C4DD00A2C00
:10963000EAD1F82D54DD2E48002408F805406EF0DC
:10964000CBF9132812D92B4BA3F11302111813F8DD
:10965000012F2A2A08BF1C708B42F8D126492748BF
:1096600061F040F92649254861F0A6FAFA2062F037
:109670001FFE244B1B681B78042B4FF00E0202D0F8
:109680000E3B012B27D82049174861F05DFFFA20D7
:1096900062F00EFE1D491448262261F055FFFA20A3
:1096A00062F006FE1A4910480E2261F04DFFFA20C2
:1096B00062F0FEFD0120BDE8F081F82DBBDC0A2C34
:1096C00008F805401D469FD1B5E7F82DB3DC08F832
:1096D0000540013598E70F49034861F035FFD6E7AB
:1096E00008F805400135A6E798D60120DC1A0A00E3
:1096F000587500206A7500201C1B0A008CA30120ED
:109700006B750020609301203C1B0A005C1B0A0063
:10971000841B0A004C1B0A002DE9F041634C01E058
:1097200061F0CAFE204661F0BFFE00282046F7DC4B
:1097300062F0B2FD5D4D044604E061F0BDFEC3B2CF
:109740000A2B07D062F0A8FD03461B1BB3F5FA6F86
:109750002846F2D3554856490D22044661F0F4FEDE
:1097600062F09AFD064604E061F0A6FEC0B20A2847
:1097700007D062F091FD03469B1BB3F5FA6F2046BC
:10978000F2D34C4FDFF82481002562F085FD0346BB
:109790009B1BB3F5FA6F404611D261F08DFEC4B247
:1097A00020466CF0CBFE6B1C18B90D2C79D00A2C1E
:1097B000EBD1F82D03DC0A2C7C551D46E5D10023A6
:1097C0003C487B556EF008F909281CD93A4BA3F1A7
:1097D0000902111802E0013399420CD09A782C2A20
:1097E000F9D15A782C2AF6D11A782C2AA3EB070043
:1097F000F1D100233B543149314861F073F83149CC
:109800002F4861F0D9F9FA2062F052FD2E4927481D
:10981000192261F099FEFA2062F04AFD2B49234893
:10982000112261F091FEFA2062F042FD28491F48A2
:10983000112261F089FEFA2062F03AFD25491B48A9
:10984000112261F081FEFA2062F032FD22491748B0
:10985000112261F079FEFA2062F02AFD1F491348B7
:10986000112261F071FEFA2062F022FD1C490F48BE
:10987000112261F069FEFA2062F01AFD19490B48C5
:10988000112261F061FEFA2062F012FD16490748CC
:109890000F2261F059FEFA2062F00AFD0120BDE8B6
:1098A000F081F82D8BDC7C5501356EE798D60120D0
:1098B000FC1A0A00587500205F750020941B0A00EE
:1098C0008CA3012061750020A81B0A00C41B0A009C
:1098D000D81B0A00EC1B0A00001C0A00141C0A001A
:1098E000281C0A003C1C0A00501C0A0010B50D4C34
:1098F000204661F0D9FD002807DD204661F0DCFD3F
:109900000A28F5D066F0BCF9F7E7074905480F22A9
:1099100061F01AFE034861F0DDFDBDE81040FA2059
:1099200062F0C6BC98D60120601C0A0010B5314B0D
:10993000314C1B689B78062B0CD0204661F0B4FD9F
:10994000002814DD204661F0B7FD0A28F5D066F046
:1099500097F9F7E7204661F0A7FD002846DD20468D
:1099600061F0AAFD0A28F5D066F08AF9F7E72349E5
:1099700015222148204C61F0E7FD1F4861F0AAFD47
:10998000FA2062F095FC204661F08EFD002807DD8C
:10999000204661F091FD0A28F5D066F071F9F7E7ED
:1099A000154817493322044661F0CEFD204661F088
:1099B00091FDFA2062F07CFC204661F075FD0028E4
:1099C00007DD204661F078FD0A28F5D066F058F9E9
:1099D000F7E70C490848182261F0B6FD064861F027
:1099E00079FDFA2062F064FC012010BD06491522C1
:1099F000BFE700BF3875002098D60120881C0A00F8
:109A0000A01C0A00D41C0A00701C0A00F8B52E4CD9
:109A100023684FF41650DB6E98472C4B19780439A5
:109A2000C9B2192910D82A4B23FA01F1C94311F000
:109A3000010109D1274861F063FD264861F04AFD24
:109A40004FF4FA7062F034FC234E244F24493760FF
:109A50000020FFF701FD28B3224B23492348336040
:109A6000FFF7FAFC58BB224B33601B68984701286C
:109A700005461AD033680BB15B6898470021242053
:109A800066F0FAFD23680422D3F89410242062F0D3
:109A900043F8184B184A1B681B7AC3F34213137020
:109AA0002846F8BD05462846F8BD144B144915480C
:109AB0003360FFF7D1FC20B9134B3760DDE70A258F
:109AC000D8E70C25D6E700BF609301200460002092
:109AD00001D9FE0398D6012058770020385C0A008F
:109AE000AC1A0A004C5C0A00CC1A0A00DC1A0A0004
:109AF00084680020387500201C7D0120605C0A000D
:109B0000B01A0A00BC1A0A00758F020038B5164C4C
:109B100023781B2B1CD01C2B08D06378DBB1012BC6
:109B20001CD0022B1DD00620034601E02320034653
:109B30000E4D01212B6066F09FFD21782868A1F170
:109B40001B01B1FA81F1BDE83840490966F018BE41
:109B500018200346ECE70D200346E9E70F200346F3
:109B6000E6E721200346E3E7046000209C6800202C
:109B7000704700BF704700BF704700BF38B5204C2A
:109B80002368FF2B2DED028B02D1BDEC028B38BD7B
:109B9000FEF748F8B0EE408AFEF74AF8B4EEC08A05
:109BA000F1EE10FA10DD206866F008FE154B1B7808
:109BB0001B2B1FD00028E8D020680021BDEC028BB1
:109BC000BDE8384066F0DCBD0F4D62F065FB2B68E8
:109BD000C01AB0F5967FD8D92468204666F0EEFD0D
:109BE000B0FA80F14909204666F0CAFD62F054FBE4
:109BF0002860CAE70128C8D020680121DEE700BF3D
:109C00009C680020046000205C7700202DE9F04370
:109C1000164687B00C461749074662F02BF92EB35B
:109C20002644DFF85490DFF84C80013E013C14F8E4
:109C3000015F0F2D414603A89CBF494603A862F06F
:109C400019F910222946684662F062F9694603A8AC
:109C500062F046FA0146384662F0F4F9684662F06E
:109C6000BFF903A862F0BCF9B442E0D1384607B0AE
:109C7000BDE8F08314730A00D0BB0A0040B1002392
:109C8000C20744BF0133DBB24008F9D103F0010041
:109C9000704700BFF8B5464C206870B1036998471B
:109CA000444B24681B685B78013B062B7DD8DFE8BA
:109CB00003F0224F5153555760003F4DEB689847D2
:109CC000A0B93E4DEB689847002854D03C4B3D4A24
:109CD00025601A60691C3C4860F056FE3B493A48D2
:109CE00060F0B4FE20680028D8D1F8BD344B384A63
:109CF00025601A60EEE73749374A8E8E0F8FCB8E7C
:109D0000488FCD6A9682DFF80CC1B1F826E0CCF816
:109D100000209B1BC01B0E6B91F828C0A2F810E01E
:109D200080B29BB2D382A91903449BB249089942DD
:109D3000D08328BFCB1AC2E90161284897832CBF82
:109D40005B080023156080F800C0D3602078F8BD60
:109D50002349D1E72349CFE72349CDE72349CBE77F
:109D600023782349234A03F0FB03022B18BF114633
:109D7000C2E72149C0E7214DEB68984798B9204DCB
:109D8000EB68984778B91F4DEB68984758B91E4D56
:109D9000EB68984738B92568002D9BD11B490A48C4
:109DA00060F054FE9EE7256094E71949A4E700BFE0
:109DB000A4780020387500202C5D0A00085D0A0098
:109DC000A0E70120C4980A008CA30120745C0A005B
:109DD00000990A0084760A006C78002098780020A8
:109DE000C0760A00D4740A0044770A0028750A0075
:109DF00098740A005C740A0048730A00885F0A00BD
:109E0000AC5F0A00545D0A00D05F0A00885C0A005B
:109E100048760A00947800202DE9F043DFF85C834F
:109E2000D8F800402378042B83B000F08C80062BF8
:109E300000F0AF80C54BC64C1B68D3F898309847EC
:109E4000054662F029FA0646002D40F0CB8094F8D2
:109E50003C30002B00F0098162F01EFAA56C451B16
:109E6000BC4B1B68751B002B00F06881B3F8129087
:109E7000A5EB0905B8481EF0EFF86328CCBFA0F2A7
:109E8000B27300F11E03B4488DF806301EF0F4F8EA
:109E90000346B1488DF805301EF002F90346AF487D
:109EA0008DF804301EF008F90346AC488DF80230F6
:109EB0001EF00EF90346A9488DF801301EF020F976
:109EC000034668468DF800301FF00AF894F84C30CD
:109ED0000646002B00F0C68062F0DEF9A26D821A01
:109EE000D8F800309E485C78A2EB0902A0FB023251
:109EF00092099C4BB618012C1A7832D1012A38D11C
:109F000062F0CAF9984B1A689369D2F808C0C31A6C
:109F10006345014680F091804FF0FF30136AC91A03
:109F20008C452ED8914B908B997805440120814225
:109F3000156282F8240053D95B78834200F2A9802D
:109F400084F001004AE01FF08DFB864BD8F80040FA
:109F50001A786478012A08BF0022012C06461A707C
:109F600007D0A4F10704B4FA84F4012A4FEA541488
:109F7000C6D07E4B9A78012A32D95B78012B11D852
:109F800060B27B4B1B680BB15B69984703B0BDE8BF
:109F9000F0837849784A0023D1E900016BF0E6FFAD
:109FA000704BD5E73304013BA3EB460383EA13333D
:109FB00003EB830383EA131303EB032103EBC103D6
:109FC00083EA1343B3FBF2F002FB1033D9B294B32C
:109FD000481CC0B2824298BF01F1FF3040B2D0E7C6
:109FE0000020CEE794F84C30002B41D062F054F9B9
:109FF000A26D801A331A9D423DD8594A5B1BA2FBC1
:10A0000003124FEA92194FF47A7202FB1939721B4C
:10A0100040F2F2339A427FF62DAF514BA3FB05205D
:10A020008009A3FB06364FF47A73B60903FB10557B
:10A0300003FB06551EE758B2A3E7DFF83081D3686B
:10A04000908A98F802E0C01A28440023BEF1010F5C
:10A05000906182F8243074D998F80130012B50D8DF
:10A0600060B25BE74FF0FF323AE74FF0FF35F7E6BB
:10A070004FF0FF30BEE73A4AA5EB06098144A2FB48
:10A08000093292094FF47A7303FB1292A3EB02098F
:10A09000BDE706FA00F5C5EBC53303F5FF437E3394
:10A0A00083EA133303EB830383EA131303EB0322E3
:10A0B00003EBC20383EA1343B3FBF1F001FB10335C
:10A0C000DAB2002CB7D0EB4303EB064383EA133339
:10A0D00003EB830383EA131303EB032003EBC003B7
:10A0E00083EA1343B3FBF1F001FB1033D8B2824291
:10A0F000A1D1501CC0B281423FF670AF013A50B2BC
:10A100003FE73304013BA3EB460383EA133303EB3E
:10A11000830383EA131303EB032003EBC00383EAF7
:10A120001343B3FBFEF00EFB1030C3B25CB1581CFE
:10A13000C0B2864507D8013B58B2EFE64FF064093C
:10A1400096E61846EAE640B2E8E600BF60930120D2
:10A150005C7600205877002098760020A8760020B2
:10A16000D34D62109878002094780020607700200A
:10A17000A4780020689A012040420F003875002022
:10A18000FFF74ABE70B50B4D2B688BB10A4B1B68AD
:10A190001B79022B0CD0044662F07EF8074B1B683B
:10A1A000984205D92B6806482146BDE870401847FB
:10A1B000002070BDA078002038750020687800204D
:10A1C000F0770020024B186808B183691847704780
:10A1D000A4780020024B1B680BB11B6A184770471C
:10A1E000A4780020072825D8DFE800F0070A0D1022
:10A1F00013161904104B587F7047104B587F704747
:10A200000F4B587F70470F4B587F70470E4B587F4E
:10A2100070470E4B587F70470D4B587F70470D4B62
:10A220001B681B7803F0FB03022B0CBF0A4B0B4B84
:10A23000587F70470020704748730A0048760A002C
:10A2400084760A00C0760A00D4740A0044770A00B3
:10A2500028750A00A478002098740A005C740A002B
:10A260002DE9F0475F4C23688AB0002B42D00028CC
:10A2700040D05D4E5D4D336828601B79022B58D06D
:10A280005B4F21B162F008F83B68984232D91FF069
:10A29000E9F9DFF88C812A685649814640466CF01E
:10A2A000C7F900282AD02368DB699847002842D1E3
:10A2B000514B1B780022012B2A6028D14F4B9B78F1
:10A2C000012B4F4B1B6843D093F8240001283BD04F
:10A2D00003F11C02002839D14A4955880E68198AB1
:10A2E00054689A68F36B691A14449847204438609C
:10A2F000012000E000200AB0BDE8F08733681B7A37
:10A300009B07D5D54049414860F0A0FBD0E761F0FC
:10A31000C3FF3B4D3B4A2B6812680446D3E900015A
:10A32000D36B98472B681B8AE41A04443C600120D5
:10A33000E1E70120DFE733681B7A9A070DD4344A3E
:10A34000136801331360B3E703F11402D868C3E75D
:10A3500093F8240003F11402BCE72E492B4860F067
:10A36000C1FA0A224946294860F080FD2A49274857
:10A3700060F0B8FA33685878FFF734FF274906468B
:10A3800001A861F077FD26B3DFF898A0DFF88C9084
:10A390004446B04414F8016B0F2E494604A89CBFF4
:10A3A000514604A861F066FD1022314607A861F00D
:10A3B000AFFD07A904A861F093FE014601A861F072
:10A3C00041FE07A861F00CFE04A861F009FE4445B7
:10A3D000E0D101A90D4860F0A9FB01A861F000FEE1
:10A3E000ADE700BFA4780020387500207477002006
:10A3F0006878002078770020987800206077002027
:10A400009478002060930120C05C0A008CA3012096
:10A41000AC780020B85C0A00F0B60A0014730A0099
:10A42000F0770020D0BB0A0008B5064A064B126838
:10A430001B6851795B6C00209847044B00221A601E
:10A4400008BD00BF3875002060930120B07800205F
:10A4500010B5094C23686BB9084A094B12681B6890
:10A4600051795B6C4FF41B60984761F015FF2060D9
:10A47000012010BD002010BDB078002038750020EC
:10A480006093012010B50B4C236803B910BD61F037
:10A4900003FF2368C01AB0F57A7FF7D9064A074B45
:10A4A00012681B6851795B6C002098470023236079
:10A4B00010BD00BFB07800203875002060930120E7
:10A4C00008B5064A064B12681B6851795B6C002080
:10A4D0009847044B00221A6008BD00BF3875002061
:10A4E00060930120B0780020704700BF704700BF24
:10A4F000704700BF014B01221A707047B5780020E9
:10A5000008B521F0E3FEBDE8084001482AF044BD4B
:10A510001C99012010B51E4CD4F8503413B1DA7ACE
:10A52000012A26D0072084F8020164230122237522
:10A5300084F8552421F05AFFD4F8503460823BB19E
:10A540009B7A052B05D0062B04BF20F07800608293
:10A5500010BD104B5B7B00B240F06002062B6282A4
:10A560000FD0012BF4D120F0780040F06000608221
:10A5700010BD93F8210084F802019B7B84F85434C9
:10A58000D3E720F0780040F07000608210BD00BF7B
:10A5900040E3012060770020F8B51C4B1C4E0024DE
:10A5A0001C703470FFF7B6FF04231A4A1A4821467C
:10A5B00021F090FF194BD3F8503423B3DD8C1935BB
:10A5C000174B1B681B78062B04D1164BDB79FF2B2E
:10A5D00008BFC83561F060FE3778044637B10FE038
:10A5E00021F0C2FF65F04CFB33784BB961F054FEAB
:10A5F000001BA842F4D9002024F02AFF3846F8BDF9
:10A6000001273846F8BD3C25DAE700BFB6780020C0
:10A61000B578002045AC0200B878002040E3012066
:10A62000A478002004690020F0B56C4D6C4B95F8BF
:10A630004F13002783B01F70002971D0D5F8503414
:10A64000DA7F072A00F28980DFE802F00787C187F6
:10A650000704870771208DF80700987A002861D0D9
:10A6600093F820009C7F081AA04245DD5D4E072A22
:10A6700005D8DFE802F00F0404040F1D040F2B19A6
:10A68000384693F8501324F0B5FF95F84F13D5F8DA
:10A690005034074693F82320032A04F1010018D010
:10A6A00093F82020C4B28A1A944224DADA7FDEE7D3
:10A6B0002B190DF1070093F8501325F067F8D5F822
:10A6C000503495F84F1393F82320032A04F1010026
:10A6D000E6D1987F05EB040C201A9CF850E3325C1D
:10A6E00082EA0E028CF8502393F820200134E4B261
:10A6F0008A1A9442DADBDA7F072A05D8DFE802F00B
:10A70000280404042334043C2C4494F8502394F883
:10A71000513343EA0223BB421AD0334B00221A7052
:10A7200003B0F0BD3846312124F064FFFA2124F053
:10A7300061FFB62124F05EFFD5F8503495F84F1331
:10A74000DA7F07468CE7294825F07EF80028E4D117
:10A75000254B01221A7003B0F0BD987A4FF6FF77AF
:10A7600000287FF47DAFDDE72C449DF8072094F8A6
:10A7700050339A42D1D1EBE70029E9D01B4895F834
:10A7800050331B4C4A1E50FA82F204E010F8011FAD
:10A790000B4348BF63405B0048BF63405B0048BF5A
:10A7A00063405B0048BF63405B0048BF63405B00A1
:10A7B00048BF63405B0048BF63405B0048BF6340E5
:10A7C00082424FEA4303E1D11B0AA6D1C0E7987A3F
:10A7D000002700287FF444AFA4E700BF40E3012036
:10A7E000B6780020FC760A00B478002090E60120BC
:10A7F0008004FAFF08B5002021F000FE054B5B68DD
:10A800009847012061F054FDBDE8084002482AF055
:10A81000C3BB00BFC4980A001C99012038B5914BF6
:10A82000914C1B689B6E9847002021F0E7FD21F0BA
:10A83000CDFD8E4B8E4819684B78013B062B62D8B4
:10A84000DFE803F07E87616190990400894A8A4BB2
:10A850008A4DC4F850248A4A05601A604A78894BA8
:10A8600088781A70023A5870042A5AD8DFE802F041
:10A870003C3A2315030042F2107201259A60023817
:10A880001E229D701A73082800F28A80DFE800F00B
:10A8900093A39F889B88888897007B4A9A60023898
:10A8A00001229A7008287FD8DFE800F073737E7E5B
:10A8B000737EA7A09900754A5A60754D9D6001206E
:10A8C000F62298701A736FF009030A79C2B9714AB7
:10A8D000A37512681278062A56D0142B56DC112B59
:10A8E00054DC38BD6C4AE7E76C4A5A606C4D9D6099
:10A8F0001B221A730120987013460A79002AE6D0A9
:10A900000223A37538BD5C4B664AC4F85024664DDB
:10A91000664A1A6005605B4B887800224A701A709C
:10A9200058700238082800F20F81DFE810F00801A3
:10A930000301F900900086000D01810077006D0091
:10A940005B4A4D4B5B4DC4F850245B4A05601A606E
:10A9500084E75A4A484B5A4DC4F85024594A056076
:10A960001A607BE7584A444B584DC4F85024584A63
:10A9700005601A6072E7574A3F4B574DC4F85024A0
:10A98000564A05601A6069E7162BA8DD1123A375E6
:10A9900038BD534A5A6040F20F629A810F2394E700
:10A9A000504A5A601E2390E74F4A5A6040F20E32D6
:10A9B0009A810E2389E74D4A5A601E2385E74C4A47
:10A9C0005A601E2381E74B4A5A601E237DE74A4A9C
:10A9D0005A601E2379E7494A5A601E2375E7484AA0
:10A9E0005A6040F20F129A810F236EE7454A5A606F
:10A9F00040F20F129A810F2367E7434A5A6040F2F0
:10AA00000E329A810E2360E7404A5A60244D9D60C1
:10AA10001722012098701A73134656E73C4A204DBE
:10AA20005A6001201E229D6098701A7313464CE7ED
:10AA3000384A1B4D5A600120F4E7374A5A60184DD6
:10AA40009D601122012098701A7313463DE7334A26
:10AA50005A60134D9D601422012098701A7313469A
:10AA600033E700BF6093012040E3012038750020E8
:10AA7000A078002048730A009C780020E90E0400AA
:10AA8000790C040060770020801A060080184B3A89
:10AA900080841E00A47800208014F84008E6D33398
:10AAA000400D030048760A00112A0400891E0400A4
:10AAB00084760A00D9390400D1330400C0760A0034
:10AAC000AD4204001D42040028750A00411C040028
:10AAD000991A040098740A00A9170400B915040013
:10AAE000004BE2360079A10840AEBF3370379B08B7
:10AAF000E0B99E0800089F08180A9E08D831A708E8
:10AB000000EA0637A032BF36C029A133A0D1E33610
:10AB1000401A9C36801C9E332028051C00D6C83362
:10AB20000E4A5A600E4D9D600A22012098701A73D9
:10AB30001346CAE60B4A0C4D5A60182072E70B4ABE
:10AB4000094D5A6041206DE7094A5A60044D9D60E5
:10AB50000E22022098701A731346B6E6D0B3CF3394
:10AB6000400D0300404FA836801A0600C07AC63553
:10AB700040AEBF33421C36D02DE9F843274E96F93C
:10AB80000030834204462CD0254F264A264DD7F864
:10AB90005034D2E901109B7A2A68E5B292F90C8010
:10ABA00000FB051553B921492148224A854238BF87
:10ABB0000A46B5FBF2F102FB1152AD1ADFF88090A4
:10ABC00099F80020FAB91C4A12681278022A0BD0B0
:10ABD0004FF00008194A3470062B08BF154645444B
:10ABE000FD60BDE8F88370476FF01D029045B8BF67
:10ABF0009046B8F11E0FA8BF4FF01E084FF47A72AE
:10AC000002FB08F8E6E7002024F022FCD7F85034D5
:10AC100000229B7A89F80020D5E700BFC168002098
:10AC200040E301206077002038750020A0860100F5
:10AC300000A05A32400D0300A478002098E1DA19F0
:10AC4000B67800202DE9F043694B1E6883B016B931
:10AC500003B0BDE8F083674CD4F85034DB7F4FF08D
:10AC60000009072B05D8DFE803F00604C0040680BE
:10AC700004064FF6FF79002024F0EAFB012061F082
:10AC800017FBD4F85004002384F84F33827A022A49
:10AC900000F08480062A7CD0002A6AD00021564F1A
:10ACA000DFF860810D4690F82320032A46D0E21891
:10ACB000795C82F85013C27F072A18D8DFE802F0C7
:10ACC00004171717042017041A460135EDB2531C58
:10ACD000DBB2AE42294684F84F33E4D8C17F07295E
:10ACE00017D8DFE801F0231616162334162348463A
:10ACF00024F080FC94F84F238146D4F85004E4E714
:10AD00000DF1070024F042FD94F84F23D4F85004CD
:10AD1000DBE7911C234454FA81F14FEA19200332F6
:10AD200083F8500384F84F2381F85093334B236208
:10AD3000012024F08DFB03B0BDE8F083795C18F8A6
:10AD400005C0E21881EA0C0182F85013B3E72344EE
:10AD50009DF8071083F850130232284B84F84F23D4
:10AD60000120236224F074FBE5E771238DF807309E
:10AD700081E74846312124F03DFCFA2124F03AFCD9
:10AD8000B62124F037FC94F84F338146D4F85004B0
:10AD900084E71B4BC4F84F3303237FE7C37E84F85B
:10ADA0005033012384F84F33438B84F8513384F8B4
:10ADB0004F23836903221B0A84F84F2384F85233FC
:10ADC000836984F85333052384F84F33427F84F832
:10ADD0005423C27F9A427FF461AF9DF8072084F824
:10ADE0005523062384F84F3358E74FF0000942E714
:10ADF0007477002040E30120F0770020F5A40200E2
:10AE0000033CFF01FC760A00F8B5354D354C2B7834
:10AE10000022227033B121F0A7FB2378002B5DD1F3
:10AE20000020F8BD304E3368DB7A5B0730D521F067
:10AE30004DFA237801222A70002BECD02B4C33687A
:10AE4000D4F850545978AA7F95F8200094F84F33DD
:10AE500002449B1ADBB2782B1E4628BF78260629AF
:10AE600029D063B122490023A87FE21802440133AC
:10AE700092F8502301F8012BDAB29642F4D81D4A19
:10AE80001D491368207C0870013313600120F8BD50
:10AE9000164FFFF73FFB194B3B6221F0EBFAD7F857
:10AEA00050347860A3B1DB7A012B14BF0220032059
:10AEB00024F0CEFABDE7D4F85023114922F07F42A6
:10AEC0008A42ADD1772B0A4A04D800219155C8E7B0
:10AED0000220EDE7002382F87730C3E7024EADE7AA
:10AEE000B6780020B47800203875002040E30120B7
:10AEF00078770020A87800207077002029A602002B
:10AF00003CFF010038B5264B1B689B6E984700201C
:10AF100020F0FAFA002020F0E7F821F0ABFA3E30FA
:10AF200020F0E2F9012020F061F9422020F07EF9C2
:10AF3000002020F07BF90546002020F057F9022080
:10AF400020F0D2F821F096FA00F59C7020F0CCF9B0
:10AF5000012020F04BF9422020F068F9002020F079
:10AF600065F90446002020F041F90E4B00211878C5
:10AF7000123C65F081FBE4B20B482AF00DF8012C7D
:10AF800001D9002038BDA5F11203DBB2012B01D994
:10AF9000012038BD054B00221A70012038BD00BFCA
:10AFA00060930120046900201C990120C0680020E2
:10AFB00038B5334B1B689B6E9847002020F0A4FAED
:10AFC000002020F091F821F055FA3E3020F08CF965
:10AFD000012020F00BF920F0B9F81D2020F026F90F
:10AFE000072020F023F9412020F020F9002020F054
:10AFF0001DF9002020F01AF90546002020F0F6F88F
:10B00000022020F071F821F035FA00F59C7020F054
:10B010006BF9012020F0EAF820F098F81D2020F0CC
:10B0200005F9072020F002F9412020F0FFF8002068
:10B0300020F0FCF8002020F0F9F80446002020F071
:10B04000D5F8104B0021187865F016FB0E4829F052
:10B05000A3FF0E4B9B7B1B0143F00403242CDBB2AC
:10B0600003D0A34207D0002038BD242D03D0242BC9
:10B0700018BF0120F8D1064B00221A70012038BDFC
:10B0800060930120046900201C99012028750A00A2
:10B09000C0680020704700BF0120704708B51DF050
:10B0A00031FEBDE80840014829F076BF1C99012017
:10B0B00000B50E4B0E4A1B6883B00021ADF804307A
:10B0C00001A81B0C11708DF806301DF0F9FC182139
:10B0D00008481DF035FD01E064F0D2FD1DF066FD6D
:10B0E0000028F9D0012003B05DF804FB505D0A0090
:10B0F000C8780020F077002070B5012182B01820B8
:10B1000065F03EFB0121182065F0B6FA264B274E6C
:10B110001B689B6E98470221304629F0BDFF002135
:10B12000182065F02DFB232130462AF063F801AD8D
:10B130000DF10704FF2130462AF05CF8AC42207084
:10B1400004F1FF34F6D10121182065F019FB00212C
:10B15000182065F091FA154829F01EFF9DF804307B
:10B16000E72B02D0002002B070BD9DF80530E72B20
:10B170000DD0312BF6D19DF80630FA2BF2D19DF887
:10B180000700A0F1B600B0FA80F04009EBE79DF8A7
:10B190000630E72BE6D19DF80700A0F1E700B0FAF2
:10B1A00080F04009DFE700BF609301201C99012077
:10B1B00010B5094C23784BB1084818211DF02AFD21
:10B1C00018B1074A13680133136010BD1DF00EFD5E
:10B1D00001232370F0E700BFC878002078770020B3
:10B1E000A8780020421C18D038B50C4D95F90030D5
:10B1F0008342044610D00A4B0A48D3E90132E1B237
:10B2000002FB013181422CBF022000201DF0DCFB3B
:10B21000054B2C7000221A7038BD7047C2680020A0
:10B220006077002000A05A32C878002010B5414B4A
:10B23000414C1B6882B09B6E98471DF081FB2368D0
:10B240001B7903BB0C201DF0F7FBC0201DF016FC82
:10B250003A4B1B68ADF8043001A81B0C8DF8063082
:10B260001DF04EFC2468364BA17800208A1E6070C9
:10B2700018705970082A54D8DFE802F01B242D36C4
:10B280003F534851090000201DF0D6FBDDE72D4A51
:10B290002D485A6001211722986099701A732B4922
:10B2A0002B4B2C482C4A08601A601DF09FFC02B002
:10B2B00010BD2A4A2A485A6041211E22986099707E
:10B2C0001A73ECE7274A26485A6018211E22986014
:10B2D00099701A73E3E7244A1B485A6001210A2235
:10B2E000986099701A73DAE7204A17485A6001216A
:10B2F0001422986099701A73D1E71D4A12485A6057
:10B3000001211122986099701A73C8E7194A0E48F2
:10B310005A6001211E22986099701A73BFE7164A7D
:10B32000F5E7164A08485A6002210E229860997083
:10B330001A73B4E76093012038750020505D0A004D
:10B3400060770020A0D1E336400D0300A0780020F4
:10B350009C780020112A0400891E0400C07AC6359A
:10B36000801A0600404FA836D0B3CF3300D6C8337A
:10B370002028051C801C9E33401A9C3640AEBF33EB
:10B38000014B01221A707047CA78002010B50B4C8F
:10B3900001222068002127F039FA20689FED080A71
:10B3A00041F2883128F084F900222068114627F004
:10B3B00051FABDE81040034829F0EEBDD0780020D6
:10B3C000000000001C9901202DE9F04FDFF80CA2CD
:10B3D000DAF8003083B0002B37D0DFF804827949E7
:10B3E000D8F8003000260E70D97F072905D8DFE88D
:10B3F00001F00604CB0406C304064FF6FF769C7AE0
:10B40000002C7DD0022C47D0DFF8D8B100256E4F3C
:10B41000DFF8C491002493F8231017F804C0012921
:10B4200000F09180032940F08880684A115D0BEBA1
:10B4300005008CEA01014170D87F072809D8DFE8B0
:10B4400000F01308080813240813002003B0BDE817
:10B45000F08F93F82330012B00F08680304624F0E3
:10B46000C9F8D8F800300646DAF800100134E4B222
:10B470008C4205F10105CED3DA7F072A21D8DFE817
:10B4800002F02A2020202A54202A0DF1070024F05F
:10B490007DF9D8F80030E7E79869DFF848B1040E85
:10B4A000050C8BF80140040A8BF804008BF802505D
:10B4B0008BF80340587F8BF80500052966D00525D9
:10B4C000A5E793F82330012B66D00BEB0503320A76
:10B4D00002359E705A70EAB23D4B8BF80020186816
:10B4E0003C4903681C680023A0470028ADD10146F1
:10B4F000802238486BF0D2F8012003B0BDE8F08F0D
:10B500003046312124F076F8FA2124F073F8B62180
:10B5100024F070F8DAF80050D8F800300646002D14
:10B520007FF472AFDFF8BCB0A6E70BEB05039DF824
:10B5300007205A700135EAB2CEE70BEB05006146F1
:10B5400080F801C078E74FEA1C1E0BEB050019F8E4
:10B550000EE080F801E001350CF00F010BEB050067
:10B5600019F80110417067E73046614624F042F84F
:10B57000D8F80030064677E79C7A71208DF80700EE
:10B58000002C7FF43FAFBBE7002638E79DF807109B
:10B590008BF8061006253AE70F4AC6F30B34C6F3BC
:10B5A0000320C6F3031106F00F060BEB0503175D2E
:10B5B000145C505C915D5F700535EAB29C70D87088
:10B5C000197189E7C9780020F0770020FC760A001D
:10B5D000D078002059790020A45E0A0074770020FA
:10B5E000C4680020587900202DE9F047634B644D72
:10B5F0001B68644E9B6E8AB098472A79EB79624942
:10B600000891FF2A08BF4FF0FF324FF48071FF2BE3
:10B610004FF0480014BF98464FF0FF380792ADF83E
:10B62000241063F059FB08AF044697E8030002AB0F
:10B63000079ADFF8A8C183E80300CDF80080EB7813
:10B640002978CDF804C0204624F034FA4F4B3460FA
:10B650001B681B780B2B4FF4C8701AD063F03CFBAF
:10B660004B4C3168824625F0A5F9C4F800A0DFF8FC
:10B670007091484DD9F800104A78531E062B2DD8EA
:10B68000DFE813F0370040002C002C00BE01DE0183
:10B69000110063F021FB3E4C3168824624F02CFE01
:10B6A000C4F800A0E3E73C483C4E3D4B2E603D4EC5
:10B6B00006603D48186089783C4E8B1E7170327070
:10B6C000082B00F2BE82DFE813F094028F02B20270
:10B6D000A8029E02BC02990285027B022E4A3448CF
:10B6E00028602F4B33481060334A1A6000224A709A
:10B6F000E1E72948314E2A4B2E60314E0660314831
:10B700001860D8E72448264B2F4E06602F4A304851
:10B71000264E18602A6089782E4B717002212E48BF
:10B720003170736001211B23B060B1703373DFF897
:10B73000B48098F80030013B1C2B5FD8DFE813F091
:10B740009E015E005E005E005E005E005E005E00C8
:10B750005E005E005E005E005E005E0014015E0042
:10B760005E009E015E005E0014015E005E005E00F1
:10B770005E005E005E005E00140100BF6093012069
:10B7800004690020CC78002080841E00A47800206A
:10B79000D0780020C4680020A078002048730A00F8
:10B7A0009C780020E90E0400790C040060770020EA
:10B7B00048760A00112A0400891E040084760A00D3
:10B7C000D9390400D1330400AD420400C0760A0028
:10B7D0001D42040008E6D333400D03001C990120EC
:10B7E0003875002004600020CDCCCC3F33331C439F
:10B7F0009A9999400000C8429A9919425FED061A39
:10B80000D37A012B00F0B6801FED081A1FED080A4D
:10B81000F1EE040A1021504628F0C6FD2B6820687E
:10B8200093F821205FED0D7A03681FED0D0A5B6B25
:10B83000012A18BFB0EE670A98472B68206893F872
:10B840002230013BDBB2022B97BFAE4A9FEDAE0A1E
:10B8500002EB830393ED000A03689B6B98472B6808
:10B86000206893F82430072B97BFA84A9FEDA80AB9
:10B8700002EB830393ED000A27F00EFB20680368B8
:10B8800000211B6C98472A682068517B0368C90017
:10B890005B6D9847206803680221DB6B98470123A2
:10B8A00000220093114641F22103206828F0AAF8F3
:10B8B0002B68587F997F93F8202093F82330014418
:10B8C0001144012B08BF4900C9B2206827F01AFEB5
:10B8D000206827F0BDFD29688A7D022A00F0F180EA
:10B8E000206803680E311B6D9847D9F800301B792A
:10B8F000002B40F0838096F90C30162B00F3DF808C
:10B9000007EE903AF8EEE77AB3EE017AF4EEC77AF2
:10B91000F1EE10FA88BFF0EE477AFDEEE77ACDED52
:10B92000077A9DF91C10206803689B6C984798F86B
:10B930000030122B00F0B4801B2B00F0A280012BF2
:10B9400000F0AE80734A7449206828F073F92068CB
:10B95000012128F05DF9206870490368D3F8A4300C
:10B9600098470AB0BDE8F087D37A012BF0EE081AA9
:10B970007FF44AAF00220823CDE900329FED680A28
:10B9800012235046F0EE610A0722092128F09AFBA3
:10B99000737B012B00F0A8809FED620ADFED627AD5
:10B9A000062B08BFB0EE670A0021206826F084FF4E
:10B9B00000220721206827F089F80022052120684D
:10B9C00027F0F2F82B682068997B27F025FA206889
:10B9D000036808215B6D9847206828F0C7F80121AB
:10B9E000009141F22103206841F60F5228F00AF835
:10B9F000D9F800301B79002B3FF47DAF022192E78C
:10BA00004A4A4B484B4B28604B4810604B4A1A60DF
:10BA10008B784B4E4B49737005223270023B0122EA
:10BA2000B160B270082B00F29B80DFE813F0600079
:10BA300060009900990060009900BB00B400C2004A
:10BA40003A4A41483B4B286040481060404A1A60DF
:10BA50008A783B4E0621931E727042F2107231704A
:10BA6000B26001211E22B1703273082B46D8DFE884
:10BA700003F08A8682457E4545458E00DFED351A06
:10BA8000BEE6002204200A210B23CDE90031CDE9D6
:10BA900002200492206809230F2128F053FF56E763
:10BAA0000022042001210323CDE90031CDE9022049
:10BAB000049220680223072128F044FF47E7112160
:10BAC00031E70B7B2068012B0CBFAA2355238DF88F
:10BAD00020308DF82130CB89ADF82230036839460B
