:020000022000DC
:1060000000000420B9A90800F9A908004508090002
:10601000FDA90800FFA9080001AA0800000000006F
:10602000000000000000000000000000ADD40800E7
:1060300005AA080000000000CDD4080009AA080045
:1060400079D708000BAA0800D1FE0800D971040016
:106050000BAA08000BAA0800C9AC08000BAA08008C
:106060000BAA08000BAA08000BAA08000BAA08003C
:106070000BAA08000BAA08000BAA08000BAA08002C
:106080000BAA0800FDD108000BAA08000BAA080003
:106090000BAA08000BAA0800C9B605000BAA080045
:1060A0000BAA08000BAA08000BAA08000BAA0800FC
:1060B0000BAA08000BAA0800000000000000000066
:1060C0000BAA08000BAA08000BAA0800C9E10800E7
:1060D0000BAA08000BAA08000BAA080021B80600AA
:1060E0001DFF0800ADDC08000BAA0800000000003E
:1060F000000000000BAA08000000000041E20800B8
:10610000000000000000000000000000000000008F
:10611000000000000000000000000000000000007F
:10612000000000000000000000000000000000006F
:10613000000000000000000000000000000000005F
:10614000000000000000000000000000000000004F
:10615000000000000000000000000000000000003F
:10616000000000000000000000000000000000002F
:10617000000000000000000000000000000000001F
:10618000000000000000000000000000000000000F
:1061900000000000000000000000000000000000FF
:1061A00000000000000000000000000000000000EF
:1061B00000000000000000000000000000000000DF
:1061C00000000000000000000000000000000000CF
:1061D00000000000000000000000000000000000BF
:1061E00000000000000000000000000000000000AF
:1061F000000000000000000000000000000000009F
:10620000F1EE103A43F08073E1EE103A704700BFB0
:1062100010B5054C237833B9044B13B10448AFF3E0
:1062200000800123237010BD306E002000000000AC
:106230000C170B0008B5034B1BB103490348AFF320
:10624000008008BD00000000346E00200C170B0019
:10625000154B002B08BF134B9D46A3F5803A002138
:106260008B460F461348144A121A70F097FA0F4BD8
:10627000002B00D098470E4B002B00D098470020F1
:10628000002104000D000D48002802D00C48AFF397
:10629000008070F0A7F9200029006AF00DF970F075
:1062A0007BF900BF0000080000000420000000008F
:1062B00000000000306E002060EA012000000000B5
:1062C0000000000038B51B4C2368D3F8AC300546FD
:1062D0009847236800201B6F98471EF059FA04F076
:1062E000EFF818F04FFC20F093FB23685A6F12B1BF
:1062F0009369984723689B6F0BB19B69984704F09B
:10630000F7F80D4B1B681B78062B01D002F046FEF8
:1063100023682846D3F88830984701F03DFC03F005
:1063200059FF2368D3F8B83098472846BDE838406D
:106330001EF03EBA60930120387500200000000076
:1063400070B52DED028B01F06BFB02F0E9FF23F03D
:1063500005FA6B4CC4E90A0102F01AFE20BB03F0F7
:1063600031FF002840F0878002F012FE002840F044
:106370008E80644C64F000FD2368C01AB0F57A7F0B
:1063800000F29980604C04F07DF864F0F5FC23681D
:10639000C01AB0F57A7F7DD818F066FCBDEC028B90
:1063A000BDE8704001F01EB8584D284621F080FE2F
:1063B00051EC100B6FF0FCFC03462846E36321F020
:1063C0009FFE51EC100B6FF0F3FC08EE100A002654
:1063D000D5F8840084ED108A85F87D606FF086F929
:1063E00045A3D3E900236FF0EBF96FF0E1FC03461E
:1063F0006364686F85F86D606FF078F93EA3D3E948
:1064000000236FF0DDF96FF0D3FC0346E364686EA0
:1064100085F85D606FF06AF937A3D3E900236FF068
:10642000CFF96FF0C5FCD5F8A430A4F86C30024663
:106430002265D5F8B40085F89D6085F8AD606FF0F1
:1064400055F92DA3D3E900236FF0BAF96FF0B0FC32
:1064500007EE900AF5EE407AF1EE10FAA06636D01B
:10646000274803F08FFE012103F0FAFE03F0AAFE95
:1064700000283FF479AF02F08BFD00283FF474AFA1
:1064800000F05EFD02F084FD00283FF472AF00F0E2
:1064900009FE6EE718F078FD16F022FA15F054FDAB
:1064A00064F06AFC206018F0DFFBBDEC028BBDE8F5
:1064B000704000F097BF02F06BFD28B903F05AFB63
:1064C00064F05AFC20605DE703F056FBF8E794EDBA
:1064D0000F0AF0EE480A02F06FFD07EE900A94ED05
:1064E000117AF8EEE77AC4ED1A7A77EE677AC4ED9E
:1064F000117AB5E7AFF300807B14AE47E17A843FB1
:10650000586E0020506E00204C6E00205C760020FB
:1065100038B5414C414D18F0E5F818F0E5F818F0A1
:10652000B1F923F01BF994F85130032BC5E90A01A6
:1065300016D003F047FE18B194F85130032B5BD00E
:10654000374D64F019FC2B68C01AB0F57A7F03D977
:1065500094F85130032B46D0BDE8384000F042BFDC
:10656000A0686FF0C3F826A3D3E900236FF028F9E1
:106570006FF01EFC0346EB63E0686FF0B7F820A3F2
:10658000D3E900236FF01CF96FF012FC03462B6473
:1065900060696FF0ABF81CA3D3E900236FF010F92A
:1065A0006FF006FC628A07EE902AF8EE677A0346DF
:1065B000C5ED137AB4F910006B646FF097F814A36B
:1065C000D3E900236FF0FCF86FF0F2FBE269238B54
:1065D00028652846AA64A5F86C3003F0D3FD012194
:1065E00003F03EFEA5E718F0ABF864F0C5FB2860A9
:1065F000BDE8384000F0F6BE00F0A2FCA0E700BF06
:1066000048AFBC9AF2D77A3EFCA9F1D24D62503F16
:10661000F2A7D3F7ABE7933F689A0120586E0020AA
:106620004C6E002030B585B003F0CCFD48B9274C46
:1066300064F0A2FB2368C01AB0F57A7F3FD805B09A
:1066400030BD234D2B68587803F0CCFD222828BF9D
:1066500022200446222200211E4870F09FF81E4985
:106660001C48224670F072F82B681B7A9B07DED517
:106670001A491B4868F0CEFB23F070F80A22014645
:10668000174868F08BFE1749154868F0C3FB22468F
:1066900001A8104903F0BAFA01A9114868F0E8FB13
:1066A00001A869F095FD0F490D4868F0B3FB0E4B4A
:1066B0000B4893F900100A2268F04AFEB7E703F08E
:1066C00059FA64F059FB206005B030BD506E0020CF
:1066D00038750020B87300207877002004BA0900CC
:1066E0008CA3012010B80A0070770020F8B5374D50
:1066F000374C23F033F82B68C4E90A01002B33D060
:1067000064F03AFB2B68C01AB0F57A6F2CD8314987
:10671000314A324B3248E1642265A365606401F07E
:106720007FF92B4803F02EFD012103F099FD03F0C2
:1067300049FD80BB2B4C00F0B5FC64F01DFB2368C9
:10674000C01AB0F57A7F3AD8274C03F09BFE64F06C
:1067500013FB2368C01AB0F57A7F1FD818F084FAAB
:10676000BDE8F84000F03EBE2049214F0E68214AA6
:10677000701C430802EBC602A7FB03735B095A2691
:1067800017685268E76306FB13030B60226464F02A
:10679000F3FA2860BBE700F0D3FBCBE719F060F811
:1067A00018F0F2FB16F09CF815F0CEFB64F0E4FA5A
:1067B000206018F059FABDE8F84000F013BE03F06D
:1067C000DBF964F0D9FA2060BEE700BFE06E00207C
:1067D000586E002000008C4300004842000096C321
:1067E0000000DB43506E00204C6E0020E46E002061
:1067F000B7600BB68CBA090010B503F0C1FC204B92
:106800001B681B78042B32D0062B36D0012B31D0DD
:10681000FFF796FD1B4C2368D3F88430984703F0AC
:10682000ADF903F063FE20F0F1F81DF0ABFF1DF0B1
:10683000ADFF2368DB69984723685A6F12B153692B
:10684000984723689A6F12B1536998472368DB6FA2
:106850000BB15B69984701F00FFA2368D3F8B430A5
:1068600098471DF0C5FFBDE8104069F083BEFFF7F3
:106870003DFFCFE7FFF7D6FECCE7FFF749FEC9E7BC
:1068800038750020609301202DE9F041794C7A4F52
:1068900084B01DF07FFF2368B870DB6A9847054617
:1068A000764868F0BBFB7649744868F0B3FA216813
:1068B0007248013168F000FB7249704868F0AAFA2A
:1068C00023689B6A98471022014601A869F04CFC96
:1068D00001A96A4868F0C2FB01A869F079FC6A491D
:1068E000664868F04BFB654843F070FF65B1674947
:1068F000624868F0F9FB6649604868F08BFA2968DD
:106900005E480A2268F062FD2368624E5B6BDFF826
:106910008C8101A8984701A9584868F09FFB01A8FD
:1069200069F056FC5C49554868F074FA23689B6B23
:1069300098470A220146514868F048FD236801A89B
:106940001B6B984701A94D4868F088FB01A869F0C6
:106950003FFC4E49494868F0C7FB484843F036FFC2
:1069600001F0AEFA2368D3F8B030984723689B6AE9
:10697000984720F07F40706303F08CF90346642051
:10698000FB7064F005FA00F0CFFF23687871D3F84C
:1069900080309847D8F80030B8711B78062B58D053
:1069A00003F034F8D8F800303871DA7886F85420DB
:1069B0005A7886F830205A7A1346C3F3C013C2F3CC
:1069C000801286F85C2086F85D3001F011F900F045
:1069D00043FB236800201B6F984703F097F803F0F0
:1069E00083FD23689A6F12B11369984723685B6F20
:1069F0000BB11B6998471DF0C3FE20F005F817F096
:106A000067FF4FF47A7064F0C3F92B68012B01D053
:106A100003F0AEF803F008FD236828681B6C984764
:106A2000D8F800301B78022B07D0042B1ED0012B86
:106A30001CD0236801201B6F98471DF0A5FE23681A
:106A40009B6998472368D3F8A830984704B0BDE8FD
:106A5000F0810A484FF4614144F064F817F03AFEBF
:106A60000D2386F85430D8F80030A1E71DF0BEFEA3
:106A7000E3E700BF60930120046000208CA30120A5
:106A80000CBA090014BA09002CBA090034740A00BF
:106A900068BA0900586E002078BA090038750020DD
:106AA00000207047D1ED117AD0ED116A91ED1C7A7A
:106AB00077EEE67A40F25622FDEEE77A17EE903A4C
:106AC00003F22B1393420FD8FDEEC77A17EE900A0C
:106AD000B0F5C87F0ADBB0F52F7F09DBB0F5FA6FA0
:106AE000ACBF002001207047002070470320704792
:106AF0000220704700000000D1ED117A90ED117A6C
:106B000077EEC77AF8B5FDEEE77A0C4617EE903AC5
:106B100040F2562103F22B138B422DED068B00F22F
:106B2000B9800246C06CD2ED14AA6EF0F1FD0246A7
:106B30000B4600206C496EF08BFC61A3D3E9002367
:106B40006EF03EFE6FF034F900EE100A09EE900A86
:106B50005FF0D4FFE06C94ED148AB0EE40AA6EF0C2
:106B6000D7FD02460B4600205F496EF071FC54A32E
:106B7000D3E900236EF024FE6FF01AF900EE100A3C
:106B800009EE100A5FF0BAFF60EE488AB0EE690ABB
:106B900060F068F8F0EE407AB0EE490AB0EE679A1D
:106BA00060F060F820EE488AEAEE8A8AAAEE898AC6
:106BB00068EE087AE8EEA87AF1EEE77A17EE900A26
:106BC0006EF0A6FD40A3D3E900236EF0F9FD6FF04F
:106BD000EFF8F0EE680AB0EE480A054660F088FB70
:106BE00010EE100A6EF094FD39A3D3E900236EF085
:106BF000E7FD6FF0DDF8DFED3D7A07EE100AB4EE49
:106C0000E77AF1EE10FA49D96EF082FD02460B46A2
:106C100031A1D1E900016EF01BFC06460F46284663
:106C20006EF076FD2EA3D3E900236FF059F888B3F8
:106C3000304639466FF0BCF8D4ED1D7A07EE100AE5
:106C400077EE677AB2EE047AF0EEE77AF4EEC77A7E
:106C5000F1EE10FA1ED594ED1C7A07EE905AC7EEAD
:106C6000277AB2EE027AF4EEC77AF1EE10FA20D467
:106C7000B2EE0A7AF4EEC77AF1EE10FA1BD4B3EE54
:106C8000037AF4EEC77AF1EE10FA4CBF012000202F
:106C900040B200E00020BDEC068BF8BD6EF038FD80
:106CA00002460B46002010496EF0D2FB06460F4606
:106CB000B5E70320EFE70220EDE700BFAFF3008068
:106CC000399D52A246DF913FCF16AD2F5476E03F5B
:106CD000F8C1631ADCA54C400000000000207C4095
:106CE0009A9999999999B93F008056400000B44209
:106CF0000020704738B504462DED068B006C334DEF
:106D00006EF006FD02460B46E06B43EC1A2B6EF06C
:106D1000FFFC02460B46286C43EC192B6EF0F8FC86
:106D200002460B46E86B43EC182B6EF0F1FCB0EE1C
:106D30004A3AF0EE6A3AB0EE492AF0EE692AB0EE2D
:106D4000481AF0EE681A41EC100B21F01DF851ECD6
:106D5000100B6FF02DF803462367206C6EF0D8FC03
:106D600002460B46E06B43EC1A2B6EF0D1FC024658
:106D70000B46286C43EC192B6EF0CAFC02460B46FE
:106D8000E86B43EC182B6EF0C3FCB0EE4A3AF0EE21
:106D90006A3AB0EE492AF0EE692A41EC100BB0EEE7
:106DA000481AF0EE681A21F0C3F851EC100B6EF09F
:106DB000FFFF074B60671B6823B1284621469847B1
:106DC00084F87800BDEC068B38BD00BF586E0020FB
:106DD000B47300202DE9F84FDFF860A1564DDAF8C2
:106DE00034306A6B934200F09A80D5F8BC2093420D
:106DF00000F09780D5F84421934200F09480D5F8B4
:106E0000CC21934200F09180D5F85422934200F0B7
:106E10008E80D5F8DC22934200F08B80D5F8642375
:106E2000934255D0D5F8EC239A4208BF072350D09F
:106E30000027BB463E462C4622F090FCA26AB0EBEF
:106E40000208E26A61EB0209B8F10B0F0BEB0B1CB5
:106E500007EB071379F1000205EBCC0C05EBC3033C
:106E600047DA94ED1C7ADCED1C7A93F9782094F9DA
:106E70007830B4EEE77AF1EE10FAC4BFB346F0EE24
:106E8000477A9342B8BF374606F10106A8BF1346BA
:106E9000082E04F18804CFD19AF97820934233DB8D
:106EA0009AED1C7AB4EEE77AF1EE10FA0DD50BEB01
:106EB0000B1B05EBCB0090F97830934205DC1F49A2
:106EC00088226FF043FC012000E00020BDE8F88F2D
:106ED000062303EB031305EBC305184995F8794026
:106EE000284688226FF032FC85F879400120BDE801
:106EF000F88F06EB0616114905EBC60088226FF0E5
:106F000025FC0120BDE8F88F07EB07170B4905EBBF
:106F1000C70088226FF01AFC0120BDE8F88F00231B
:106F2000D7E70123D5E70223D3E70323D1E70423DF
:106F3000CFE70523CDE700BFE86E0020B87300203F
:106F400070B5394E394D336884B0587803F04AF93A
:106F5000222828BF222004462222002128466FF042
:106F60001DFC2246324928466FF0F0FB33681B7A3D
:106F70009A0711D42F492E4822466FF0D9FB0028DA
:106F80003FD02D4B1B682BB1284A2C4928489847E5
:106F900000283CD104B070BD29492A4867F03AFF67
:106FA00022F0DCFB0A220146264868F0F7F9264960
:106FB000244867F02FFF224601A8294602F026FE4A
:106FC00001A9204867F054FF01A869F001F91E49A2
:106FD0001C4867F01FFF1D4B1A4893F900100A2246
:106FE00068F0B6F91349124822466FF0A1FB002859
:106FF000C7D133681B7A9B0703D51549114867F041
:10700000BDFF144A1368013B136004B070BD0F4B01
:1070100006481B7885F86E30FFF76CFE0348FFF7D3
:10702000D9FE04B070BD00BF38750020B8730020D1
:1070300078770020F07700209C780020586E0020A0
:1070400004BA09008CA3012010B80A007077002050
:107050005CBD0900A87800200C4B1B685B7AC3F369
:10706000C203022B06D0032B0CD03BB1084B094ABC
:107070001A607047064B084A1A607047044B074A6B
:107080001A607047024B064A1A6070473875002034
:10709000B4730020A56A0200F96A0200A16A020026
:1070A000F16C02002DE9F04FDFF834A38BB063F0F0
:1070B00063FEDAF80030C01AB0F5FA6F40F2D680FD
:1070C000DFF8F8B2DBF83430002B40F0D280BA4958
:1070D000BA4888226FF03AFBDBF8BC300BB3B849F2
:1070E000DBF8B030D1E90A20DBF8B410D61A60EB37
:1070F00001070B2E77F1000313DA022E77F100035C
:1071000002DBB048FFF7F6FD9BF80131DE070DD436
:1071100003F09EF99BF8013143F001038BF8013134
:1071200004E0A549A74888226FF010FBDBF8443142
:1071300073B1A349DBF83831D1E90A20DBF83C11FF
:10714000D41A60EB01050B2C75F10003C0F21F810E
:1071500099499D4888226FF0F9FADBF8CC3193B158
:107160009749DBF8C031D1E90A20DBF8C411D31A02
:10717000029360EB01030393DDE902340B2B74F1FE
:107180000002C0F2EF808C49904888226FF0DEFA4E
:10719000DBF8543293B18A49DBF84832D1E90A204E
:1071A000DBF84C12D31A049360EB01030593DDE97D
:1071B00004340B2B74F10002C0F2BF807E49844876
:1071C00088226FF0C3FADBF8DC3293B17C49DBF83C
:1071D000D032D1E90A20DBF8D412D31A069360EB3F
:1071E00001030793DDE906340B2B74F10002C0F2B2
:1071F0008F807149774888226FF0A8FADBF86433F2
:107200008BB16F49DBF85833D1E90A20DBF85C1306
:10721000D31A089360EB01030993DDE908340B2BC3
:1072200074F1000260DB64496B4888226FF08EFACB
:10723000DBF8EC338BB16249DBF8E033D1E90A20AB
:10724000DBF8E413D31A009360EB01030193DDE94B
:1072500000340B2B74F1000232DB57495F4888225F
:107260006FF074FA63F088FDCAF800000BB0BDE857
:10727000F08F5349DBF82830D1E90A20DBF82C10D5
:10728000B2EB030860EB0109B8F10B0F79F10003D1
:10729000BFF61DAFB8F1020F79F1000302DB5846CB
:1072A000FFF728FD9BF87930DF073FF515AF03F0B6
:1072B000CFF89BF8793043F001038BF879300BE776
:1072C000022B74F1000302DB4448FFF713FD9BF827
:1072D0003134DB07C6D403F0BBF89BF8313443F0FC
:1072E00001038BF83134BDE7022B74F1000302DB9C
:1072F0003948FFF7FFFC9BF8A933DA0798D403F06D
:10730000A7F89BF8A93343F001038BF8A9338FE763
:10731000022B74F1000302DB2E48FFF7EBFC9BF815
:107320002133D9073FF56AAF03F092F89BF8213378
:1073300043F001038BF8213360E7022B74F1000363
:1073400002DB2348FFF7D6FC9BF89932D8073FF5BC
:107350003AAF03F07DF89BF8993243F001038BF8C4
:10736000993230E7022B74F1000302DB1748FFF774
:10737000C1FC9BF81132DC073FF50AAF03F068F857
:107380009BF8113243F001038BF8113200E7022C15
:1073900075F1000302DB0C48FFF7ACFC9BF8893168
:1073A000DD073FF5DAAE03F053F89BF8893143F07F
:1073B00001038BF88931D0E628730020E86E0020A5
:1073C000586E0020706F0020F86F00208070002041
:1073D000087100209071002018720020A072002017
:1073E000B07300202DE9F04F634D6A6B8BB092B102
:1073F000624AD2E90A43EA6A0992AA6AA01A099A79
:1074000063EB02010B2871F1000304DB5C49882265
:1074100028466FF09BF9D5F8BC20A2B15748D5F8A3
:10742000B020D0E90A13D5F8B400B1EB020863EB41
:107430000009B8F10B0F79F1000304DB5049514802
:1074400088226FF083F9D5F8442192B14B48D5F8E2
:107450003821D0E90A13D5F83C018E1A63EB0007F6
:107460000B2E77F1000304DB4549474888226FF073
:107470006DF9D5F8CC21B2B14048D5F8C021D0E99A
:107480000A16D5F8C4018B1A009366EB000301932A
:10749000DDE900340B2B74F1000304DB38493B4871
:1074A00088226FF053F9D5F85422A2B13348D5F8A9
:1074B0004822D0E90A14D5F84C02B1EB020A64EB79
:1074C000000BBAF10B0F7BF1000304DB2C493048B1
:1074D00088226FF03BF9D5F8DC22B2B12748D5F805
:1074E000D022D0E90A14D5F8D4028B1A029364EBA7
:1074F00000030393DDE902340B2B74F1000304DB7A
:107500001F49244888226FF021F9D5F86423B2B1CD
:107510001A48D5F85823D0E90A14D5F85C038B1A19
:10752000049364EB00030593DDE904340B2B74F141
:10753000000304DB1249184888226FF007F9D5F8D8
:10754000EC23B2B10D48D5F8E023D5F8E433D0E907
:107550000A108A1A60EB030306920793DDE90634EA
:107560000B2B74F1000304DB05490C4888226FF0F3
:10757000EDF80BB0BDE8F08FE86E0020586E0020EB
:1075800028730020706F0020F86F002080700020AA
:10759000087100209071002018720020A072002055
:1075A000104B586BD3F8BC20003818BF012002B133
:1075B0000130D3F8442102B10130D3F8CC2102B11B
:1075C0000130D3F8542202B10130D3F8DC2202B1E9
:1075D0000130D3F8642302B10130D3F8EC3303B1A6
:1075E00001307047E86E002090ED017AD1ED017A0C
:1075F000B4EEE77AF1EE10FA08DCB4EE677AF1EE59
:1076000010FA14BF4FF0FF30002070470120704780
:10761000704700BF01482FF021BC00BFAC740020B0
:1076200008B504482FF0CCFC07EE900AB8EEE70A44
:1076300008BD00BFAC740020DFED037A034820EEE4
:10764000270A2FF055BD00BF0000C842AC740020CF
:1076500038B5234C234D2449204667F0DBFB2846F0
:107660002FF0FCFB10EE100A6EF052F841EC100BFC
:107670002046022167F052FC1C49204667F07EFC40
:107680001B49204667F0C6FB28462FF099FC0A22CA
:107690000146204667F03AFE1649204667F06EFC28
:1076A0001549204667F0B6FB28469FED140A2FF0D7
:1076B0001FFD10EE100A6EF02BF841EC100B204667
:1076C000022167F02BFC0E49204667F057FC20464C
:1076D00067F0A4FCBDE838404FF4FA7063F058BB83
:1076E0008CA30120AC74002084BD090094BD090066
:1076F00098BD0900A4BD0900A8BD090080E6C547E2
:10770000B4BD0900014803212FF028BDAC7400204E
:10771000014830F0A5BA00BFC4740020014830F021
:10772000C9BA00BFC4740020014830F0DDBB00BFFF
:10773000C474002038B5264C264D2749204667F0F2
:1077400069FB284630F08CFA10EE100A6DF0E0FF6D
:1077500041EC100B2046022167F0E0FB1F49204658
:1077600067F00CFC1E49204667F054FB284630F0B9
:10777000A1FA10EE100A6DF0CBFF41EC100B204681
:10778000022167F0CBFB1749204667F0F7FB16494B
:10779000204667F03FFB28469FED140A30F0A4FB1B
:1077A00010EE100A6DF0B4FF41EC100B20460221E0
:1077B00067F0B4FB0E49204667F0E0FB204667F017
:1077C0002DFCBDE838404FF4FA7063F0E1BA00BF19
:1077D0008CA30120C474002084BD090094BD09005D
:1077E00098BD0900A4BD0900BCBD090000507D443E
:1077F000D0BD090001482FF099BE00BFC47400201D
:10780000014830F073BD00BFF8740020014830F02B
:107810001FBC00BFF874002008B5DFED067A0648EB
:1078200020EE270A30F03EFDBDE80840024830F067
:10783000A5BC00BF0000C842F874002038B51F4D39
:107840001F4C284630F004FCDFED1E7A60EE277AEC
:1078500017EE900A6DF05CFF41EC100B2046022100
:1078600067F05CFB1849204667F088FB284630F03B
:1078700085FC10EE100A6DF04BFF41EC100B20461A
:10788000022167F04BFB1149204667F077FB284641
:1078900030F02CFD10EE100A6DF03AFF41EC100BA9
:1078A0002046022167F03AFB2046094967F066FB53
:1078B000BDE83840FA2063F06BBA00BFF8740020CE
:1078C0008CA30120AA409B39D4BD0900B4BD090096
:1078D000E4BD09000149024830F040BBDC940120BE
:1078E000F874002008B50E485822772130F06CF863
:1078F00008B1012008BD0A485822762130F064F80A
:107900000028F6D106486022772130F05DF8002883
:10791000EFD1BDE8084002486022762130F054B82B
:10792000C4740020704700BF38B52C4B2C4C1B682A
:10793000D3F89C309847002848D02A4B2360DB6856
:107940009847002836D021682748013167F0B4FAFB
:107950002649254867F012FB23681B69984723686E
:10796000DB6998472368224A1B6A82ED000A984720
:10797000204B83ED000A63F0FFF923681E4A9B69E0
:107980009FED1E0A106098471D491E4A1E4B81ED4F
:10799000000A82ED000A83ED120A63F0EDF9236814
:1079A0001A4A1B4C1D7820600021116051609160C3
:1079B000284638BD174B2360DB6898470028C2D1A2
:1079C000154B2360DB6898470028BCD1002513497C
:1079D0000548256067F0D2FA284638BD609301203B
:1079E000A8740020106000208CA30120E8BD0900CD
:1079F00084740020907400208C74002000507D441A
:107A00008074002094740020586E00209874002028
:107A100088740020346000205860002014BE0900E3
:107A20002DE9F84F4E4C23682DED028B002B00F012
:107A300087804C4D63F0A0F92B68C01AB0F5A77F82
:107A400066D323689FED480A9B69DFF844A1474F3E
:107A5000DFF840B1464E98479AED008A87ED000A5C
:107A600030EE488A8BED120A63F086F929689FEDA3
:107A7000416A414B3268DFED416A401A07EE900AD5
:107A8000F8EE677A03EB820288EE277A67EE067AD1
:107A9000C2ED007AD3ED017A93ED006A93ED027A9C
:107AA00077EE867A77EE877A67EEA67A17EE900AF7
:107AB0006DF02EFE24A3D3E90023804689466EF0A4
:107AC0000FF948B122A3D3E90023404649466EF09E
:107AD000E9F808B1002008E01FA3D3E900234046DD
:107AE00049466DF06DFE6EF063F93B68CAF80030F0
:107AF000CBF8580063F040F93268214B286001321E
:107B000083FB0213A3EBE27303EB4303D31A33604B
:107B10001C4D63F031F92A6840F6B833801A984258
:107B20000ED92368DB6998472368174A1B6A82EDE0
:107B3000000A9847154B83ED000A63F01DF9286091
:107B4000BDEC028BBDE8F88F9A9999999999B9BFC4
:107B50009A9999999999B93FDE567A6D369B684002
:107B6000A87400208874002000507D448074002098
:107B7000A474002000007A4498740020ABAAAA3EA6
:107B8000565555558C740020847400209074002044
:107B900094740020586E0020024B1B680BB15B6987
:107BA00018477047A8740020014B93ED000A7047F6
:107BB00080740020014B93ED000A7047847400200C
:107BC000014B93ED000A70479074002008B50548FA
:107BD0002FF042F904482FF00FFCBDE8084003489D
:107BE00030F0BAB9AC740020C4740020F8740020DE
:107BF00010B5094C2368D3F88C30984723680020CF
:107C0000D3F890309847054B83ED000A63F0B4F841
:107C1000034B186010BD00BF609301200875002061
:107C200000750020014B93ED000A70470875002095
:107C3000024B1B680120D3F8903018476093012055
:107C4000024B1B680220D3F8903018476093012044
:107C500000B5084B1B6883B0D3F8903003209847D9
:107C6000FCEEC07ACDED017A9DF8040003B05DF81A
:107C700004FB00BF6093012070B51F4D63F07CF8DA
:107C80002A6841F28833801A984219D91B4E33680A
:107C90000020D3F89030984710EE100A10EE104AEA
:107CA0006DF036FD12A3D3E900236EF019F840B948
:107CB000134B00221A60134B1C6063F05DF82860C0
:107CC00070BD33680220D3F89030984707EE904A91
:107CD000F4EEC07AF1EE10FAEAD5094A1368022BE5
:107CE00002DC01331360E6E70720FEF7EBFAE2E778
:107CF000CDCCCCCCCCCCFC3F0075002060930120D7
:107D0000047500200875002030B45B4A5B4B117885
:107D100057A5D5E9004500221129C3E900451A728B
:107D20003FD01B292AD010297CD0587C20F03F005E
:107D3000172940F008000BBF062501250124144631
:107D40005874012940F2011058815D72187C1C732F
:107D500055D15A7320F00F0242F00D02D9731A74F4
:107D600008461C8A43F61F72224042EA4010002255
:107D700018829A74172978D1042235E0188A9A81DA
:107D800020F47C5222F00F0242F4006242F00D0215
:107D9000052040F2017502241A8258725D81DC735D
:107DA000DFE71A8A22F47C5222F00F0242F40062CA
:107DB00042F00D02052540F601744FF400701A825E
:107DC00002225D725C819881DA73A1F11B02012AA3
:107DD00049D9102935D11A8A22F4404222F0E00212
:107DE00004211A829974002200200021C3E90601AF
:107DF000C3E908010024DA741C7530BC704720F018
:107E00000F00022440F00D000F2918745C73DC731E
:107E1000DBD1188A9A7443F61F71014041F0A0012A
:107E20001982E1E71A8A22F47C5222F00F0242F40E
:107E3000006242F00D02032540F2011440F20220DC
:107E4000BDE71C8A43F61F72A1F11200012894BFFE
:107E5000802020202240024311294FF000001A8286
:107E6000987489D086E705207BE70022BCE700BF35
:107E7000DADEBABA6100000004600020107500204C
:107E80002DE9F0410B4D0C4F05F128062C4601342D
:107E90002146384611F80129491B89B220F04EFCD1
:107EA000B442F4D1054B1B68BDE8F0415B6E022083
:107EB000184700BF0F7500209C950120609301209A
:107EC0002DE9F041284F3B6828201B6E9847002879
:107ED0002DD0264D264E0024A1B2304620F076FA51
:107EE0000134282C05F8010FF6D1224C224B2268D0
:107EF0009A420ED02149224867F040F8FFF704FF6C
:107F000001203B681F4A20495B6E1160BDE8F041CB
:107F100018471E491A4866F07DFF616818480A2212
:107F200067F054FA6368612B15D10020E9E718491E
:107F3000134866F06FFF0A222821114867F03AFAC9
:107F400014490F4867F01AF80D4842F03FFC1248F8
:107F500062F01EFFBDE71149094867F00FF8FFF70F
:107F6000D3FE0120CDE700BF609301200F750020F4
:107F70009C95012010750020DADEBABA80BE090097
:107F80008CA301203875002018750020CCBE090094
:107F90004CBE09006CBE090040420F00E0BE090063
:107FA000F0B5B34CB34E2068B34F036895B09B6DEA
:107FB000002198473368206893F82810036803313C
:107FC000DB6A01F003019847206800213DF0BEFE06
:107FD000002120683DF0C2FE206803689B6E984730
:107FE000206803684FF6FF711B6C98472068A3490F
:107FF0003DF0B8FE0DF1160205AB206803920DF1BD
:10800000120104AA02930023CDE900211A469C49DB
:108010003DF0BAFE0DF1260209AB206803920DF186
:10802000220108AA02930023CDE900211A469549AE
:108030003DF0AAFE3B7820680F2B02D01A2B40F0AF
:10804000F5803DF0ADFFBDF814300146C91A01EBD3
:10805000D17120684D103DF0A7FFBDF81630BDF876
:10806000261002461A4402EBD272C1EB620212B22F
:1080700029B220683DF066FE8149206866F01CFF49
:10808000814920683DF06EFE0DF11E0507A80DF137
:108090001A0106AACDE90021CDE9020500231A46FE
:1080A0007A4920683DF070FE20683DF079FFBDF808
:1080B0001C300146C91A01EBD17120684D103DF00A
:1080C00073FFBDF81E3002461A4402EBD27242F32F
:1080D0004F0229B220683DF035FE6C49206866F0F9
:1080E000EBFE664920683DF03DFE20683DF058FFFC
:1080F000BDF824300146C91A01EBD17120684D103A
:108100003DF052FFBDF8263002461A4402EBD2720F
:1081100003EB620212B229B220683DF013FE594906
:10812000206866F0C9FE7B78022B96BF584A584BF0
:1081300052F82330574A88BFDB6800922021564A04
:108140000CA86FF0C5FB554920683DF00BFE0BAD48
:108150000DF12A00CDE901050DF12E030AAA0393C2
:10816000009200231A460CA920683DF00DFE2068FD
:108170003DF016FFBDF82C300146C91A01EBD17154
:1081800020684D103DF010FFBDF82E300246D21A87
:10819000206829B212B23DF0D5FD20680CA966F026
:1081A0008BFE2068036800211B6E984720680368D7
:1081B000D3F8C830984720680368D3F8D030984780
:1081C00004461DF0A9FA1CF0E9FD1DF0C1FD1CF0EC
:1081D00045FB1EF0A5FA1CF02DFD3368304993F8DD
:1081E00029205309013B02F007020A60032B06D83D
:1081F000DFE803F0180218392A4B02221A702A4BC2
:108200001B68D3F8BC300BB11B68984762F0B4FD13
:10821000264B186062F0B0FD254B024620461A60DE
:1082200015B0F0BD1F4B05221A70E8E73DF0B8FE0F
:10823000BDF814300146C91A01EBD17120684D1008
:108240003DF0B2FEBDF8163002461A4402EBD2727F
:10825000206829B242F34F023DF074FD08492068BE
:1082600066F02AFE9DE70F4B0A221A70C7E700BF8F
:1082700050FB00209873012004600020ECBF09002F
:1082800064C4090070C40900C8BF09006CC40900B7
:10829000C868002038BF090028BF0900981B0A00E1
:1082A0004475002048750020609301203C75002033
:1082B0004C7500202DE9F043894FBB79093B022B17
:1082C00087B000F28680874C23782BB1642062F05F
:1082D0005FFD2378002BF9D1834E84493068DFF8A5
:1082E0003C92DFF83C823DF03DFD0DF1160305ADFB
:1082F0000DF1120104AA03930023CDE901153068A2
:108300007B4900921A463DF03FFD306803684FF606
:10831000FF711B6C9847BDF81630306805331AB2F0
:1083200005219DB23DF00EFD7149306866F0C4FD37
:10833000F9783068002914BF4946414666F0BCFD13
:10834000BDF81630306807332B441AB205219DB2B0
:108350003DF0F8FC6749306866F0AEFD3979306869
:10836000002914BF4946414666F0A6FD3B780F2B15
:1083700032D01A2B00F09C80BDF816307A79073382
:108380001D44ADB2002A00F089802AB23068052170
:108390003DF0D8FC5849306866F08EFD574B79792E
:1083A000574A3068002914BF1146194666F084FD0B
:1083B0003B780F2B53D00123237023782BB16420FB
:1083C00062F0E6FC2378002BF9D14FF47A6062F07A
:1083D000DFFC07B0BDE8F083BDF816303068073326
:1083E0002B441AB205219DB23DF0ACFC45493068E2
:1083F00066F062FDB9793068002914BF49464146EC
:1084000066F05AFDBDF81630306807332B441AB2B7
:1084100005219DB23DF096FC3B49306866F04CFD6D
:10842000397A3068002914BF4946414666F044FD58
:10843000BDF81630306807332B441AB205219DB2BF
:108440003DF080FC3149306866F036FDF9793068DE
:1084500001290CBF4946414666F02EFD8CE7BDF868
:1084600016207B7A07321544ADB2E3B9284930684B
:108470003DF078FC2AB2306805213DF063FC2549C7
:10848000306866F019FD797A1D4A1C4B3068002966
:1084900014BF1146194666F00FFD8CE71C49306881
:1084A0003DF060FC71E7114930683DF05BFCE1E7AD
:1084B000BDF81630306807332B441AB205219DB23F
:1084C0003DF040FC1449306866F0F6FCF9793068FC
:1084D00002290CBF4946414666F0EEFC4CE700BF5E
:1084E000046000204075002050FB0020E0BF090020
:1084F00040C4090018C3090004C3090044BF0900AF
:1085000040BF090058C4090000C0090034C4090074
:10851000C8BF0900F8BF09000CC309003CBF09002F
:1085200030960A002DE9F04F7C4CA479093C012CCF
:108530008DB002D90DB0BDE8F08F794E1F4633786B
:108540000546894690462BB1642062F021FC3378C1
:10855000002BF9D1734C206803684FF6FF711B6C38
:1085600098476B1C00F0EC802B466F4A0E2108A840
:108570006FF0AEF90DF11E0B0DF11C0A6B4920686E
:108580003DF0F0FBCDE902AB0DF11A02019206AA13
:108590000023009208A91A4620683DF0F5FB2068E8
:1085A0003DF0FEFCBDF81C300146C91A01EBD1714B
:1085B0004910206805913DF0F7FCBDF81E30059983
:1085C000051EB8BF0335C3EBA5052AB2206809B262
:1085D0003DF0B8FB08A9206866F06EFCBDF81E20CF
:1085E000CDF80CB00DF11A01019106A900230091FC
:1085F0000732CDF808A0ADB24D49206815441A469F
:108600003DF0C2FB20683DF0CBFCBDF81C300146BC
:10861000C91AADB201EBD1712AB2206841F34F0102
:108620003DF090FB4249206866F046FCBDF81E30E4
:10863000CDF80CB00DF11A01019103EB430306A92B
:1086400003F1150200910023CDF808A039492068F4
:1086500015441A463DF098FB20683DF0A1FCBDF89A
:108660001C300146C91AADB201EBD1712AB22068A3
:1086700041F34F013DF066FB2E49206866F01CFC7B
:10868000BDF81E302C4A07331D44ADB24B460E21B7
:1086900008A86FF01DF92AB220680A213DF052FBAC
:1086A00008A9206866F008FCBDF81E30224A07338E
:1086B0001D44ADB243460E2108A86FF009F92AB255
:1086C00020680A213DF03EFB08A9206866F0F4FB13
:1086D000BDF81E30194A07331D440E213B46ADB28A
:1086E00008A86FF0F5F820680A212AB23DF02AFBAD
:1086F000206808A966F0E0FB0123337033782BB1C2
:10870000642062F045FB3378002BF9D140F6B83095
:1087100062F03EFB0DB0BDE8F08F00BF04600020AA
:108720004075002050FB002068BF0900D4BF09003D
:108730006CBF09007CBF0900C0620A008CBF090041
:108740000DF11E0A0DF11C090DF11A0806AF206883
:1087500050493DF007FBCDE9029ACDE900780023AE
:108760001A464D4920683DF00FFB20683DF018FC8B
:10877000BDF81C300146C91A01EBD17120684FEADF
:10878000610B3DF011FC05F15535023585FB0032DA
:10879000A2EBE07212B220680FFA8BF13DF0D2FA30
:1087A0003D49206866F088FB20683C493DF0DAFAD4
:1087B000CDE9029ACDE9007800231A4638492068AD
:1087C0003DF0E2FA20683DF0EBFBBDF81C300146BD
:1087D000C91A01EBD17120684FEA610B3DF0E4FB4F
:1087E000420085FB0213BDF81E102068A3EBE27364
:1087F0005B1A1AB20FFA8BF19DB23DF0A3FA284929
:10880000206866F059FBCDE90189BDF81E20CDF83E
:108810000CA00023009707322249206815441A460D
:108820003DF0B2FA20683DF0BBFBBDF81C300146BC
:10883000C91AADB201EBD1712AB2206841F34F01E0
:108840003DF080FA1749206866F036FBCDE90189D2
:10885000BDF81E20CDF80CA0002300970732124966
:10886000206815441A463DF08FFA20683DF098FBC9
:10887000BDF81C300146C91AADB201EBD1712068B8
:108880002AB241F34F013DF05DFA2068064966F0D7
:1088900013FB31E7E0BF090048BF0900C8BF09006A
:1088A00050BF090054BF090060BF0900F8B5334B41
:1088B0009B790A3B012B00D9F8BD314D2B78BBB118
:1088C000304C237803F0FF01002BF5D12E4B1868B4
:1088D00003681B6C98470223237023782BB1642014
:1088E00062F056FA2378002BF9D100232B70F8BDE3
:1088F000264C2368013B042B3DD8DFE803F0262FEC
:10890000292C03001CF0A4F9214B1B6893F8293093
:1089100003F0E003202B24D001261E4C2378002BEB
:10892000CAD01D4F62F028FA227839684EF66023CB
:10893000401A03FB02F39842BED9002EBCD001239B
:108940002B7062F019FA3860F8BD1CF035FADBE7DD
:108950001CF02EF8D8E71DF005FFD5E71DF0FCF957
:10896000D2E72368013B012BD6D8FEF719FEB0FAF7
:1089700080F67609D1E71CF083FFC5E7046000208C
:108980007E6000204075002050FB002044750020D0
:1089900098730120487500204C7500202DE9F04F98
:1089A000DFF8FCA2DAF80030D3F8BC3089B0054615
:1089B0000C460BB15B689847AB4BAC4A9B79AC4813
:1089C0000A3B072D0CBF15460546012B02D909B0FD
:1089D000BDE8F08FDFF8CC8298F8003033B1642026
:1089E00062F0D6F998F80030002BF8D1DFF8B89291
:1089F000D9F800003DF0D4FA8346D9F800003DF0E4
:108A0000D3FA83B21FFA8BFB0593002C40F0B4809D
:108A1000D9F8000003684FF6FF711B6C9847954921
:108A2000D9F800003DF09EF90DF11C0A0DF11A076E
:108A300006AE0DF11E032946CDE902A3D9F80000C8
:108A400023462246CDE900673DF09EF9BDF81C1093
:108A5000BDF81E20D9F80000ABEB010101EBD1718C
:108A600002EB520212B241F34F013DF06BF929467D
:108A7000D9F8000066F020FA059BBDF81E5002945C
:108A8000A3F1800000EBD0706D08ABF18001C5EB65
:108A90006005802301EBD1712AB2CDE90033D9F80A
:108AA0000000754B41F34F013CF07EFE7349D9F84D
:108AB00000003DF057F90DF11E03CDE902A3704906
:108AC000D9F800002346ADB22246CDE900673DF05B
:108AD0005BF905F1910212B2D9F8000005213DF0D1
:108AE00031F96749D9F8000066F0E6F96549D9F827
:108AF00000003DF037F96449D9F8000066F0DCF970
:108B00006249D9F800003DF02DF90DF11E03CDE9C1
:108B100002A35F49D9F8000023462246CDE9006749
:108B20003DF032F9BDF81C10D9F80000ABEB0101A3
:108B300005F1A60201EBD17141F34F0112B23DF0F4
:108B400001F95349D9F8000066F0B6F9012388F815
:108B5000003098F8003033B1642062F019F998F8C9
:108B60000030002BF8D1D9F800000368D3F8CC30DE
:108B7000984709B0BDE8F08F3E49D9F800003DF0B4
:108B8000F1F8D9F8000003684FF6FF711B6C9847A5
:108B90000DF11E07002307AE0DF11A0506AC1A46AB
:108BA0003C49D9F80000CDE90267CDE900453DF028
:108BB000EBF8059BBDF81C10D9F800001A46364B9F
:108BC000ABEB0101A3FB02C201EBD171520841F3EF
:108BD0004F013DF0B7F82F49D9F8000066F06CF965
:108BE00000231A462D49D9F80000CDE90267CDE9E6
:108BF00000453DF0C9F8BDF81C10059A264BD9F880
:108C000000005200ABEB0101A3FB023201EBD1717A
:108C100042F34F0241F34F013DF094F81F49D9F858
:108C2000000066F049F9012388F8003098F8003018
:108C300033B1642062F0ACF898F80030002BF8D122
:108C4000DAF80030DB6998474FF47A6062F0A0F8F8
:108C5000DAF80030DB699847D9F8000003684FF66E
:108C6000FF711B6C984771E70460002094BF0900F6
:108C7000A0BF0900D4BF090080600020981B0A0033
:108C800078C40900C8E3090084C409004CC4090081
:108C900094C40900ACBF0900ABAAAAAAB8BF0900D6
:108CA000609301204075002050FB0020384B9B79D9
:108CB0000A3B012B00D970473648374B374A10B46E
:108CC0000468128883FB0413A3EBE47303EB4303F0
:108CD000A4EB43039C4203D042FA03F1C90751D4E9
:108CE0002D4B611C83FB01C3A3EBE17303EB430337
:108CF000A1EB43039C4203D042FA03F1C90741D4DC
:108D0000254BA11C83FB01C3A3EBE17303EB4303DE
:108D1000A1EB43039C4203D042FA03F1C90731D4CB
:108D20001D4BE11C83FB01C3A3EBE17303EB430386
:108D3000A1EB43039C4203D042FA03F1C90721D4BB
:108D4000154B211D83FB01C3A3EBE17303EB43032D
:108D5000A1EB43039C4203D042FA03F1C90711D4AB
:108D60000D4B611D83FB01C3A3EBE17303EB4303D5
:108D7000A1EB43039C4202D01A41D20702D45DF812
:108D8000044B7047064A036001231370F7E700BFE6
:108D90000460002044750020ABAAAA2A7C60002051
:108DA0007E6000200D4B9B790A2B00D070470C4B46
:108DB0001B68013B042B0ED8DFE803F00B09070505
:108DC00003001BF0E9BF1DF009BE1BF031BF1DF011
:108DD000E1BB1CF095BC1CF0B9BF00BF04600020D3
:108DE0004475002078B12DE9F04F037887B08046B4
:108DF00033B1DFF840B19BF8002002F0FF061AB152
:108E000007B0BDE8F08F7047DFF82CA18946DAF88B
:108E1000000047493CF0A6FFDAF8000002684FF670
:108E2000FF71126C9047DAF800003DF0B9F8044683
:108E3000DAF800003DF0B8F8A4B285B2B9F1000F3D
:108E40004FD005AB02930DF112030DF116070193FC
:108E500004ABDAF8000000933246334641460397EC
:108E60003CF092FFBDF81410BDF81620DAF80000AF
:108E7000611A01EBD171C2EB550212B241F34F01FD
:108E80003CF060FF4146DAF8000066F015F805ABEB
:108E900002930DF11203019304ABDAF80000009382
:108EA00032463346494603973CF06EFFBDF8141036
:108EB000BDF81630DAF800006A08611A1A4401EBAE
:108EC000D17141F34F0112B23CF03CFFDAF80000DF
:108ED000494665F0F1FF02238BF8003007B0BDE88A
:108EE000F08F0DF1160005A90DF1120204ABCDE9CA
:108EF0000210CDE90032DAF800004B464A464146FE
:108F00003CF042FFBDF81410BDF81620DAF800005E
:108F1000611A2A4401EBD17141F34F0142F34F0230
:108F20003CF010FFDAF80000414665F0C5FFD2E7DB
:108F3000E0BF09004075002050FB002008B50B4C35
:108F40000B4E002523786BB1306821780368A1F1BE
:108F50000201B1FA81F11B6E4909984767F00AFBDB
:108F60002378257067F006FBECE700BF4075002012
:108F700050FB002001207047704700BF704700BFC2
:108F8000704700BF704700BF704700BF704700BF09
:108F9000014B1878704700BF5876002010B5242088
:108FA00061F038FE034B1B681BB1BDE81040DB6865
:108FB000184710BD5877002038B510EE100A2DED77
:108FC000028BB0EE608A6CF0A3FB04460D4622468D
:108FD0002B46674900206CF03BFA664B00226CF090
:108FE000EFFB002200236CF071FE22462B46002886
:108FF00000F0B6805CA1D1E900016CF029FA5D4B6C
:1090000000226CF0DDFB6CF08BFEB5EEC08AF1EE59
:1090100010FA0446F0EE487A0CDA9FED576ADFED5D
:10902000576AB0EE677AB4EEE67AF1EE10FA77EEB0
:10903000867AF6DBDFED506AF4EEE67AF1EE10FAAE
:109040000AD49FED4F6AB0EE677AB4EEC67AF1EEBD
:1090500010FA77EEE67AF6D517EE900A6CF058FB28
:10906000444B00226CF0ACFB002200236CF02EFE7F
:10907000B5EEC08A002842D0F1EE10FA0CDADFED2E
:109080003E6A9FED3E7AF0EE487AF4EEC77AF1EE52
:1090900010FA38EE268AF6DB9FED377AB4EEC78AEF
:1090A000F1EE10FA0AD4DFED366AF0EE487AF4EE0B
:1090B000E67AF1EE10FA38EE478AF6D518EE100A85
:1090C0006CF026FB2F4B00226CF0C4F9294B0022D8
:1090D0006CF076FB6CF024FE2B4BB4221B6802FB79
:1090E0000400984207D2002805DBBDEC028B274B19
:1090F000185C7F3838BDBDEC028B002038BDF1EE26
:1091000010FA0CDADFED1C6A9FED1C7AF0EE487A5B
:10911000F4EEC77AF1EE10FA38EE268AF6DB9FED10
:10912000167AB4EEC78AF1EE10FA0AD4DFED146AAB
:10913000F0EE487AF4EEE67AF1EE10FA38EE478A6D
:10914000F6D518EE100A6CF0E3FA0E4B00226CF024
:109150007FF9084B00226CF033FB6CF0E1FDBBE7BC
:109160000B49002049E700BF0000000000C0564046
:10917000008056400000E03F0000B4430000B4C34C
:10918000000034440000F03F98680020F01D0A0001
:109190000040564001481EF0A5B900BF5C76002093
:1091A0002DE9F047544EDFF8749133685A6F002A66
:1091B0002DD0D36998470028336828DD5B6F1B6A80
:1091C00098470523044689F80030631CEDD02046FB
:1091D0006DF034FA18B90D2C01D00A2CE5D1474DA9
:1091E000474F2B684748E1B2F9541EF067FD2B68E2
:1091F000FA5C0D2A2CD00A2A18D0F92B16D001338C
:109200002B6067F0B7F933685A6F002AD1D19B6F92
:109210007BB1DB69984700280BDD33689B6F1B6AC5
:1092200098470423044689F80030CEE700232B60DA
:10923000BBE7354866F0D0FB00284ADC334866F0CF
:10924000CBFB00284DDD314866F0CEFB0446BCE781
:109250000028D2D01C1F37D42D4A126892F80880FB
:1092600018F0010F30D03A1901E0013C2CD312F86C
:1092700001192429F9D191784729F6D1254A127884
:109280001B1B042A03F1010A17D1E01C22493844B0
:109290006EF02AFC034680B91A4AD2F8B40082F86C
:1092A000AD306CF023FA12A3D3E900236CF088FAF6
:1092B000002200236CF0ECFCA8B9524639194FEAA1
:1092C0005810012315F060FC16F09AFC2B68FA5C2C
:1092D00091E70D4866F088FB0123044689F80030C9
:1092E00073E7BDE8F08716F093FBEDE7AFF300807E
:1092F0007B14AE47E17A843F6093012054750020CF
:10930000587500205C76002070DA012018DB0120FF
:109310003875002004600020A41B0A001C7D012079
:10932000F0B5464C87B0FFF73BFF23781BB194F8AC
:109330007C30002B4FD10023414D42492A680B70ED
:10934000002A6CD194F84C3043B93F4B1B68002B7A
:1093500071D09B6807B0BDE8F040184794F84D30D5
:10936000002BF2D039481EF0F3FE394B1B888342A4
:10937000EBD894F84C30002BE7D061F0FDFCA36DE6
:10938000C01AB0F57A7FE0D832481EF011FF0446CB
:1093900030481EF019FF01462E4805911EF02CFFA3
:1093A00002462A4804921EF0F7FE0346274803931C
:1093B0001EF0DEFE064625481EF0CAFE0746DDE921
:1093C0000332059900962046019720F043FA61F098
:1093D000D3FC2860B9E794F83C30002BABD061F0A7
:1093E000CBFC636B40F6AC55C01AA842A3D894F8E6
:1093F0007C30002B9FD061F0BFFCD4F88030C01AC5
:10940000A84298D894F83C30002B94D061F0B4FC7A
:10941000A36CC01AA8428CBF002301238CE761F023
:10942000ABFC2A684EF66023801A98428AD8064B15
:109430001B68002B8DD107B0F0BD00BF5C7600200B
:10944000507500205876002058770020987600202C
:1094500080680020A87600202DE9F84F804641481A
:109460008946044666F0CEFA01E066F0BDFA204671
:1094700066F0B2FA00282046F7DC61F07DFC394C3A
:10948000394FB8F1000F40F6B835064618BF4FF413
:10949000FA6561F071FC801BA84207D35FE061F0C0
:1094A0006BFC801B854206D967F064F8204666F0A5
:1094B0009BFA0A28F3D1052061F06AFCB8F1000F8D
:1094C0000FD0204666F088FA0028E2DC40466EF0B5
:1094D00003FB41460246204666F0CEFA204666F07F
:1094E00091FA4FF0000B61F047FC03469B1B9D4235
:1094F00020461FD966F078FA5FFA80FA50466DF080
:109500009DF80BF1010328B9BAF10D0F1FD0BAF184
:109510000A0FE8D1BBF1F90F0CDCBAF10A0F07F81A
:109520000BA007D09B4661F027FC03469B1B9D4286
:109530002046DFD848466EF0CFFA49460246384604
:109540006EF0D2FA0028A4D10120BDE8F88FBBF15B
:10955000F90FEFDC07F80BA00BF1010BC3E70020BC
:10956000BDE8F88F18DB0120587500200149002064
:10957000FFF772BFAC1B0A0008B504490448FFF7A7
:109580006BFF002814BF0C20012008BDB01B0A008F
:10959000BC1B0A0008B504490448FFF75DFF00281A
:1095A00014BF0A20012008BDCC1B0A00DC1B0A00E6
:1095B00008B504490448FFF74FFF002814BF0E20E8
:1095C000012008BDEC1B0A00FC1B0A0008B5054978
:1095D00005480D2266F050FABDE80840FA2061F017
:1095E000D7BB00BF0C1C0A0018DB01203E483F49D6
:1095F0002DE9F0410E22074666F03EFA61F0BCFB11
:10960000DFF8EC800646002561F0B6FB03469B1BA5
:10961000B3F5FA6F38460ED266F0E6F9C4B22046CA
:109620006DF00CF86B1C002847D10D2C4DD00A2C86
:10963000EAD1F82D54DD2E48002408F805406EF0DC
:109640004BFA132812D92B4BA3F11302111813F85C
:10965000012F2A2A08BF1C708B42F8D126492748BF
:1096600065F0D8FB2649254865F03EFDFA2061F0FB
:109670008FFB244B1B681B78042B4FF00E0202D08B
:109680000E3B012B27D82049174866F0F5F9FA2040
:1096900061F07EFB1D491448262266F0EDF9FA20A0
:1096A00061F076FB1A4910480E2266F0E5F9FA20BF
:1096B00061F06EFB0120BDE8F081F82DBBDC0A2CC7
:1096C00008F805401D469FD1B5E7F82DB3DC08F832
:1096D0000540013598E70F49034866F0CDF9D6E714
:1096E00008F805400135A6E718DB0120DC1B0A005D
:1096F000587500206A7500201C1C0A008CA30120EC
:109700006B750020609301203C1C0A005C1C0A0061
:10971000841C0A004C1C0A002DE9F041634C01E056
:1097200066F062F9204666F057F900282046F7DC1B
:1097300061F022FB5D4D044604E066F055F9C3B2CA
:109740000A2B07D061F018FB03461B1BB3F5FA6F19
:109750002846F2D3554856490D22044666F08CF946
:1097600061F00AFB064604E066F03EF9C0B20A2842
:1097700007D061F001FB03469B1BB3F5FA6F20464F
:10978000F2D34C4FDFF82481002561F0F5FA03464F
:109790009B1BB3F5FA6F404611D266F025F9C4B2AF
:1097A00020466CF04BFF6B1C18B90D2C79D00A2C9D
:1097B000EBD1F82D03DC0A2C7C551D46E5D10023A6
:1097C0003C487B556EF088F909281CD93A4BA3F127
:1097D0000902111802E0013399420CD09A782C2A20
:1097E000F9D15A782C2AF6D11A782C2AA3EB070043
:1097F000F1D100233B543149314865F00BFB31492D
:109800002F4865F071FCFA2061F0C2FA2E49274812
:10981000192266F031F9FA2061F0BAFA2B4923488F
:10982000112266F029F9FA2061F0B2FA28491F489E
:10983000112266F021F9FA2061F0AAFA25491B48A5
:10984000112266F019F9FA2061F0A2FA22491748AC
:10985000112266F011F9FA2061F09AFA1F491348B3
:10986000112266F009F9FA2061F092FA1C490F48BA
:10987000112266F001F9FA2061F08AFA19490B48C1
:10988000112266F0F9F8FA2061F082FA16490748C9
:109890000F2266F0F1F8FA2061F07AFA0120BDE8B3
:1098A000F081F82D8BDC7C5501356EE718DB01204B
:1098B000FC1B0A00587500205F750020941C0A00EC
:1098C0008CA3012061750020A81C0A00C41C0A009A
:1098D000D81C0A00EC1C0A00001D0A00141D0A0016
:1098E000281D0A003C1D0A00501D0A0010B50D4C31
:1098F000204666F071F8002807DD204666F074F80F
:109900000A28F5D066F036FEF7E7074905480F222A
:1099100066F0B2F8034866F075F8BDE81040FA202A
:1099200061F036BA18DB0120601D0A0010B5314B1A
:10993000314C1B689B78062B0CD0204666F04CF807
:10994000002814DD204666F04FF80A28F5D066F0AE
:1099500011FEF7E7204666F03FF8002846DD204676
:1099600066F042F80A28F5D066F004FEF7E72349CE
:1099700015222148204C66F07FF81F4866F042F817
:10998000FA2061F005FA204666F026F8002807DD87
:10999000204666F029F80A28F5D066F0EBFDF7E7D7
:1099A000154817493322044666F066F8204666F0EB
:1099B00029F8FA2061F0ECF9204666F00DF800284D
:1099C00007DD204666F010F80A28F5D066F0D2FDD3
:1099D000F7E70C490848182266F04EF8064866F08A
:1099E00011F8FA2061F0D4F9012010BD06491522C2
:1099F000BFE700BF3875002018DB0120881D0A0072
:109A0000A01D0A00D41D0A00701D0A00F8B52E4CD6
:109A100023684FF41650DB6E98472C4B19780439A5
:109A2000C9B2192910D82A4B23FA01F1C94311F000
:109A3000010109D1274865F0FBFF264865F0E2FFE8
:109A40004FF4FA7061F0A4F9234E244F2449376093
:109A50000020FFF701FD28B3224B23492348336040
:109A6000FFF7FAFC58BB224B33601B68984701286C
:109A700005461AD033680BB15B6898470021242053
:109A800065F0A0F823680422D3F89410242060F035
:109A9000BDFF184B184A1B681B7AC3F3421313709F
:109AA0002846F8BD05462846F8BD144B144915480C
:109AB0003360FFF7D1FC20B9134B3760DDE70A258F
:109AC000D8E70C25D6E700BF609301200460002092
:109AD00001D9FE0318DB012058770020385D0A0009
:109AE000AC1B0A004C5D0A00CC1B0A00DC1B0A0000
:109AF00084680020387500201C7D0120605D0A000C
:109B0000B01B0A00BC1B0A00758F020038B5164C4A
:109B100023781B2B1CD01C2B08D06378DBB1012BC6
:109B20001CD0022B1DD00620034601E02320034653
:109B30000E4D01212B6065F045F821782868A1F1D0
:109B40001B01B1FA81F1BDE83840490965F0BEB8A2
:109B500018200346ECE70D200346E9E70F200346F3
:109B6000E6E721200346E3E7046000209C6800202C
:109B7000704700BF704700BF704700BF38B5204C2A
:109B80002368FF2B2DED028B02D1BDEC028B38BD7B
:109B9000FEF748F8B0EE408AFEF74AF8B4EEC08A05
:109BA000F1EE10FA10DD206865F0AEF8154B1B7869
:109BB0001B2B1FD00028E8D020680021BDEC028BB1
:109BC000BDE8384065F082B80F4D61F0D5F82B68DC
:109BD000C01AB0F5967FD8D92468204665F094F86D
:109BE000B0FA80F14909204665F070F861F0C4F8D8
:109BF0002860CAE70128C8D020680121DEE700BF3D
:109C00009C680020046000205C7700202DE9F04370
:109C1000164687B00C461749074666F023FA2EB35E
:109C20002644DFF85490DFF84C80013E013C14F8E4
:109C3000015F0F2D414603A89CBF494603A866F06B
:109C400011FA10222946684666F05AFA694603A8B6
:109C500066F03EFB0146384666F0ECFA684666F070
:109C6000B7FA03A866F0B4FAB442E0D1384607B0B8
:109C7000BDE8F08334740A00F0BC0A0040B1002350
:109C8000C20744BF0133DBB24008F9D103F0010041
:109C9000704700BFF8B5464C206870B1036998471B
:109CA000444B24681B685B78013B062B7DD8DFE8BA
:109CB00003F0224F5153555760003F4DEB689847D2
:109CC000A0B93E4DEB689847002854D03C4B3D4A24
:109CD00025601A60691C3C4865F0EEF83B493A483B
:109CE00065F04CF920680028D8D1F8BD344B384ACB
:109CF00025601A60EEE73749374A8E8E0F8FCB8E7C
:109D0000488FCD6A9682DFF80CC1B1F826E0CCF816
:109D100000209B1BC01B0E6B91F828C0A2F810E01E
:109D200080B29BB2D382A91903449BB249089942DD
:109D3000D08328BFCB1AC2E90161284897832CBF82
:109D40005B080023156080F800C0D3602078F8BD60
:109D50002349D1E72349CFE72349CDE72349CBE77F
:109D600023782349234A03F0FB03022B18BF114633
:109D7000C2E72149C0E7214DEB68984798B9204DCB
:109D8000EB68984778B91F4DEB68984758B91E4D56
:109D9000EB68984738B92568002D9BD11B490A48C4
:109DA00065F0ECF89EE7256094E71949A4E700BF49
:109DB000A4780020387500202C5E0A00085E0A0096
:109DC000A0E70120E4990A008CA30120745D0A0039
:109DD000209A0A00A4770A006C7800209878002066
:109DE000E0770A00F4750A0064780A0048760A00F1
:109DF000B8750A007C750A0068740A0088600A0059
:109E0000AC600A00545E0A00D0600A00885D0A0057
:109E100068770A00947800202DE9F043DFF85C832E
:109E2000D8F800402378042B83B000F08C80062BF8
:109E300000F0AF80C54BC64C1B68D3F898309847EC
:109E4000054660F099FF0646002D40F0CB8094F85F
:109E50003C30002B00F0098160F08EFFA56C451BA3
:109E6000BC4B1B68751B002B00F06881B3F8129087
:109E7000A5EB0905B8481EF06BF96328CCBFA0F22A
:109E8000B27300F11E03B4488DF806301EF070F96D
:109E90000346B1488DF805301EF07EF90346AF4801
:109EA0008DF804301EF084F90346AC488DF802307A
:109EB0001EF08AF90346A9488DF801301EF09CF97E
:109EC000034668468DF800301FF086F894F84C3051
:109ED0000646002B00F0C68060F04EFFA26D821A8D
:109EE000D8F800309E485C78A2EB0902A0FB023251
:109EF00092099C4BB618012C1A7832D1012A38D11C
:109F000060F03AFF984B1A689369D2F808C0C31AF8
:109F10006345014680F091804FF0FF30136AC91A03
:109F20008C452ED8914B908B997805440120814225
:109F3000156282F8240053D95B78834200F2A9802D
:109F400084F001004AE01FF009FC864BD8F800407D
:109F50001A786478012A08BF0022012C06461A707C
:109F600007D0A4F10704B4FA84F4012A4FEA541488
:109F7000C6D07E4B9A78012A32D95B78012B11D852
:109F800060B27B4B1B680BB15B69984703B0BDE8BF
:109F9000F0837849784A0023D1E900016CF066F833
:109FA000704BD5E73304013BA3EB460383EA13333D
:109FB00003EB830383EA131303EB032103EBC103D6
:109FC00083EA1343B3FBF2F002FB1033D9B294B32C
:109FD000481CC0B2824298BF01F1FF3040B2D0E7C6
:109FE0000020CEE794F84C30002B41D060F0C4FE46
:109FF000A26D801A331A9D423DD8594A5B1BA2FBC1
:10A0000003124FEA92194FF47A7202FB1939721B4C
:10A0100040F2F2339A427FF62DAF514BA3FB05205D
:10A020008009A3FB06364FF47A73B60903FB10557B
:10A0300003FB06551EE758B2A3E7DFF83081D3686B
:10A04000908A98F802E0C01A28440023BEF1010F5C
:10A05000906182F8243074D998F80130012B50D8DF
:10A0600060B25BE74FF0FF323AE74FF0FF35F7E6BB
:10A070004FF0FF30BEE73A4AA5EB06098144A2FB48
:10A08000093292094FF47A7303FB1292A3EB02098F
:10A09000BDE706FA00F5C5EBC53303F5FF437E3394
:10A0A00083EA133303EB830383EA131303EB0322E3
:10A0B00003EBC20383EA1343B3FBF1F001FB10335C
:10A0C000DAB2002CB7D0EB4303EB064383EA133339
:10A0D00003EB830383EA131303EB032003EBC003B7
:10A0E00083EA1343B3FBF1F001FB1033D8B2824291
:10A0F000A1D1501CC0B281423FF670AF013A50B2BC
:10A100003FE73304013BA3EB460383EA133303EB3E
:10A11000830383EA131303EB032003EBC00383EAF7
:10A120001343B3FBFEF00EFB1030C3B25CB1581CFE
:10A13000C0B2864507D8013B58B2EFE64FF064093C
:10A1400096E61846EAE640B2E8E600BF60930120D2
:10A150005C7600205877002098760020A8760020B2
:10A16000D34D62109878002094780020607700200A
:10A17000A4780020689A012040420F003875002022
:10A18000FFF74ABE70B50B4D2B688BB10A4B1B68AD
:10A190001B79022B0CD0044660F0EEFD074B1B68C8
:10A1A000984205D92B6806482146BDE870401847FB
:10A1B000002070BDA078002038750020687800204D
:10A1C000F0770020024B186808B183691847704780
:10A1D000A4780020024B1B680BB11B6A184770471C
:10A1E000A4780020072825D8DFE800F0070A0D1022
:10A1F00013161904104B587F7047104B587F704747
:10A200000F4B587F70470F4B587F70470E4B587F4E
:10A2100070470E4B587F70470D4B587F70470D4B62
:10A220001B681B7803F0FB03022B0CBF0A4B0B4B84
:10A23000587F70470020704768740A0068770A00EA
:10A24000A4770A00E0770A00F4750A0064780A002F
:10A2500048760A00A4780020B8750A007C750A00C8
:10A260002DE9F0475F4C23688AB0002B42D00028CC
:10A2700040D05D4E5D4D336828601B79022B58D06D
:10A280005B4F21B160F078FD3B68984232D91FF0F6
:10A2900065FADFF88C812A685649814640466CF0A1
:10A2A00047FA00282AD02368DB699847002842D162
:10A2B000514B1B780022012B2A6028D14F4B9B78F1
:10A2C000012B4F4B1B6843D093F8240001283BD04F
:10A2D00003F11C02002839D14A4955880E68198AB1
:10A2E00054689A68F36B691A14449847204438609C
:10A2F000012000E000200AB0BDE8F08733681B7A37
:10A300009B07D5D54049414864F038FED0E760F05E
:10A3100033FD3B4D3B4A2B6812680446D3E90001EC
:10A32000D36B98472B681B8AE41A04443C600120D5
:10A33000E1E70120DFE733681B7A9A070DD4344A3E
:10A34000136801331360B3E703F11402D868C3E75D
:10A3500093F8240003F11402BCE72E492B4864F063
:10A3600059FD0A224946294865F018F82A49274824
:10A3700064F050FD33685878FFF734FF27490646EC
:10A3800001A865F06FFE26B3DFF898A0DFF88C9087
:10A390004446B04414F8016B0F2E494604A89CBFF4
:10A3A000514604A865F05EFE1022314607A865F00C
:10A3B000A7FE07A904A865F08BFF014601A865F078
:10A3C00039FF07A865F004FF04A865F001FF4445C4
:10A3D000E0D101A90D4864F041FE01A865F0F8FE46
:10A3E000ADE700BFA4780020387500207477002006
:10A3F0006878002078770020987800206077002027
:10A400009478002060930120C05D0A008CA3012095
:10A41000AC780020B85D0A0010B80A0034740A0055
:10A42000F0770020F0BC0A0008B5064A064B126817
:10A430001B6851795B6C00209847044B00221A601E
:10A4400008BD00BF3875002060930120B07800205F
:10A4500010B5094C23686BB9084A094B12681B6890
:10A4600051795B6C4FF41B60984760F085FC20606D
:10A47000012010BD002010BDB078002038750020EC
:10A480006093012010B50B4C236803B910BD60F038
:10A4900073FC2368C01AB0F57A7FF7D9064A074BD8
:10A4A00012681B6851795B6C002098470023236079
:10A4B00010BD00BFB07800203875002060930120E7
:10A4C00008B5064A064B12681B6851795B6C002080
:10A4D0009847044B00221A6008BD00BF3875002061
:10A4E00060930120B0780020704700BF704700BF24
:10A4F000704700BF014B01221A707047B5780020E9
:10A5000008B521F05FFFBDE8084001482AF0C0BD52
:10A510001C99012010B51E4CD4F8503413B1DA7ACE
:10A52000012A26D0072084F8020164230122237522
:10A5300084F8552421F0D6FFD4F8503460823BB122
:10A540009B7A052B05D0062B04BF20F07800608293
:10A5500010BD104B5B7B00B240F06002062B6282A4
:10A560000FD0012BF4D120F0780040F06000608221
:10A5700010BD93F8210084F802019B7B84F85434C9
:10A58000D3E720F0780040F07000608210BD00BF7B
:10A5900040E3012060770020F8B51C4B1C4E0024DE
:10A5A0001C703470FFF7B6FF04231A4A1A4821467C
:10A5B00022F00CF8194BD3F8503423B3DD8C193545
:10A5C000174B1B681B78062B04D1164BDB79FF2B2E
:10A5D00008BFC83560F0D0FB3778044637B10FE0CC
:10A5E00022F03EF865F0C6FF33784BB960F0C4FB4B
:10A5F000001BA842F4D9002024F0A6FF3846F8BD7D
:10A6000001273846F8BD3C25DAE700BFB6780020C0
:10A61000B578002045AC0200B878002040E3012066
:10A62000A478002004690020F0B56C4D6C4B95F8BF
:10A630004F13002783B01F70002971D0D5F8503414
:10A64000DA7F072A00F28980DFE802F00787C187F6
:10A650000704870771208DF80700987A002861D0D9
:10A6600093F820009C7F081AA04245DD5D4E072A22
:10A6700005D8DFE802F00F0404040F1D040F2B19A6
:10A68000384693F8501325F031F895F84F13D5F864
:10A690005034074693F82320032A04F1010018D010
:10A6A00093F82020C4B28A1A944224DADA7FDEE7D3
:10A6B0002B190DF1070093F8501325F0E3F8D5F8A6
:10A6C000503495F84F1393F82320032A04F1010026
:10A6D000E6D1987F05EB040C201A9CF850E3325C1D
:10A6E00082EA0E028CF8502393F820200134E4B261
:10A6F0008A1A9442DADBDA7F072A05D8DFE802F00B
:10A70000280404042334043C2C4494F8502394F883
:10A71000513343EA0223BB421AD0334B00221A7052
:10A7200003B0F0BD3846312124F0E0FFFA2124F0D7
:10A73000DDFFB62124F0DAFFD5F8503495F84F1339
:10A74000DA7F07468CE7294825F0FAF80028E4D19B
:10A75000254B01221A7003B0F0BD987A4FF6FF77AF
:10A7600000287FF47DAFDDE72C449DF8072094F8A6
:10A7700050339A42D1D1EBE70029E9D01B4895F834
:10A7800050331B4C4A1E50FA82F204E010F8011FAD
:10A790000B4348BF63405B0048BF63405B0048BF5A
:10A7A00063405B0048BF63405B0048BF63405B00A1
:10A7B00048BF63405B0048BF63405B0048BF6340E5
:10A7C00082424FEA4303E1D11B0AA6D1C0E7987A3F
:10A7D000002700287FF444AFA4E700BF40E3012036
:10A7E000B67800201C780A00B478002090E601209A
:10A7F0008004FAFF08B5002021F07CFE054B5B6861
:10A800009847012060F0C4FABDE8084002482AF0E9
:10A810003FBC00BFE4990A001C99012038B5914B58
:10A82000914C1B689B6E9847002021F063FE21F03D
:10A8300049FE8E4B8E4819684B78013B062B62D837
:10A84000DFE803F07E87616190990400894A8A4BB2
:10A850008A4DC4F850248A4A05601A604A78894BA8
:10A8600088781A70023A5870042A5AD8DFE802F041
:10A870003C3A2315030042F2107201259A60023817
:10A880001E229D701A73082800F28A80DFE800F00B
:10A8900093A39F889B88888897007B4A9A60023898
:10A8A00001229A7008287FD8DFE800F073737E7E5B
:10A8B000737EA7A09900754A5A60754D9D6001206E
:10A8C000F62298701A736FF009030A79C2B9714AB7
:10A8D000A37512681278062A56D0142B56DC112B59
:10A8E00054DC38BD6C4AE7E76C4A5A606C4D9D6099
:10A8F0001B221A730120987013460A79002AE6D0A9
:10A900000223A37538BD5C4B664AC4F85024664DDB
:10A91000664A1A6005605B4B887800224A701A709C
:10A9200058700238082800F20F81DFE810F00801A3
:10A930000301F900900086000D01810077006D0091
:10A940005B4A4D4B5B4DC4F850245B4A05601A606E
:10A9500084E75A4A484B5A4DC4F85024594A056076
:10A960001A607BE7584A444B584DC4F85024584A63
:10A9700005601A6072E7574A3F4B574DC4F85024A0
:10A98000564A05601A6069E7162BA8DD1123A375E6
:10A9900038BD534A5A6040F20F629A810F2394E700
:10A9A000504A5A601E2390E74F4A5A6040F20E32D6
:10A9B0009A810E2389E74D4A5A601E2385E74C4A47
:10A9C0005A601E2381E74B4A5A601E237DE74A4A9C
:10A9D0005A601E2379E7494A5A601E2375E7484AA0
:10A9E0005A6040F20F129A810F236EE7454A5A606F
:10A9F00040F20F129A810F2367E7434A5A6040F2F0
:10AA00000E329A810E2360E7404A5A60244D9D60C1
:10AA10001722012098701A73134656E73C4A204DBE
:10AA20005A6001201E229D6098701A7313464CE7ED
:10AA3000384A1B4D5A600120F4E7374A5A60184DD6
:10AA40009D601122012098701A7313463DE7334A26
:10AA50005A60134D9D601422012098701A7313469A
:10AA600033E700BF6093012040E3012038750020E8
:10AA7000A078002068740A009C780020E10F040090
:10AA8000710D040060770020801A060080184B3A90
:10AA900080841E00A47800208014F84008E6D33398
:10AAA000400D030068770A00092B0400811F040091
:10AAB000A4770A00D13A0400C9340400E0770A0000
:10AAC000A54304001543040048760A00391D04001C
:10AAD000911B0400B8750A00A1180400B116040007
:10AAE000004BE2360079A10840AEBF3370379B08B7
:10AAF000E0B99E0800089F08180A9E08D831A708E8
:10AB000000EA0637A032BF36C029A133A0D1E33610
:10AB1000401A9C36801C9E332028051C00D6C83362
:10AB20000E4A5A600E4D9D600A22012098701A73D9
:10AB30001346CAE60B4A0C4D5A60182072E70B4ABE
:10AB4000094D5A6041206DE7094A5A60044D9D60E5
:10AB50000E22022098701A731346B6E6D0B3CF3394
:10AB6000400D0300404FA836801A0600C07AC63553
:10AB700040AEBF33421C36D02DE9F843274E96F93C
:10AB80000030834204462CD0254F264A264DD7F864
:10AB90005034D2E901109B7A2A68E5B292F90C8010
:10ABA00000FB051553B921492148224A854238BF87
:10ABB0000A46B5FBF2F102FB1152AD1ADFF88090A4
:10ABC00099F80020FAB91C4A12681278022A0BD0B0
:10ABD0004FF00008194A3470062B08BF154645444B
:10ABE000FD60BDE8F88370476FF01D029045B8BF67
:10ABF0009046B8F11E0FA8BF4FF01E084FF47A72AE
:10AC000002FB08F8E6E7002024F09EFCD7F8503459
:10AC100000229B7A89F80020D5E700BFC168002098
:10AC200040E301206077002038750020A0860100F5
:10AC300000A05A32400D0300A478002098E1DA19F0
:10AC4000B67800202DE9F043694B1E6883B016B931
:10AC500003B0BDE8F083674CD4F85034DB7F4FF08D
:10AC60000009072B05D8DFE803F00604C0040680BE
:10AC700004064FF6FF79002024F066FC012060F006
:10AC800087F8D4F85004002384F84F33827A022ADC
:10AC900000F08480062A7CD0002A6AD00021564F1A
:10ACA000DFF860810D4690F82320032A46D0E21891
:10ACB000795C82F85013C27F072A18D8DFE802F0C7
:10ACC00004171717042017041A460135EDB2531C58
:10ACD000DBB2AE42294684F84F33E4D8C17F07295E
:10ACE00017D8DFE801F0231616162334162348463A
:10ACF00024F0FCFC94F84F238146D4F85004E4E798
:10AD00000DF1070024F0BEFD94F84F23D4F8500451
:10AD1000DBE7911C234454FA81F14FEA19200332F6
:10AD200083F8500384F84F2381F85093334B236208
:10AD3000012024F009FC03B0BDE8F083795C18F829
:10AD400005C0E21881EA0C0182F85013B3E72344EE
:10AD50009DF8071083F850130232284B84F84F23D4
:10AD60000120236224F0F0FBE5E771238DF8073022
:10AD700081E74846312124F0B9FCFA2124F0B6FCE1
:10AD8000B62124F0B3FC94F84F338146D4F8500434
:10AD900084E71B4BC4F84F3303237FE7C37E84F85B
:10ADA0005033012384F84F33438B84F8513384F8B4
:10ADB0004F23836903221B0A84F84F2384F85233FC
:10ADC000836984F85333052384F84F33427F84F832
:10ADD0005423C27F9A427FF461AF9DF8072084F824
:10ADE0005523062384F84F3358E74FF0000942E714
:10ADF0007477002040E30120F0770020F5A40200E2
:10AE0000033CFF011C780A00F8B5354D354C2B7812
:10AE10000022227033B121F023FC2378002B5DD176
:10AE20000020F8BD304E3368DB7A5B0730D521F067
:10AE3000C9FA237801222A70002BECD02B4C3368FE
:10AE4000D4F850545978AA7F95F8200094F84F33DD
:10AE500002449B1ADBB2782B1E4628BF78260629AF
:10AE600029D063B122490023A87FE21802440133AC
:10AE700092F8502301F8012BDAB29642F4D81D4A19
:10AE80001D491368207C0870013313600120F8BD50
:10AE9000164FFFF73FFB194B3B6221F067FBD7F8DA
:10AEA00050347860A3B1DB7A012B14BF0220032059
:10AEB00024F04AFBBDE7D4F85023114922F07F4229
:10AEC0008A42ADD1772B0A4A04D800219155C8E7B0
:10AED0000220EDE7002382F87730C3E7024EADE7AA
:10AEE000B6780020B47800203875002040E30120B7
:10AEF00078770020A87800207077002029A602002B
:10AF00003CFF010038B5264B1B689B6E984700201C
:10AF100020F076FB002020F063F921F027FB3E3083
:10AF200020F05EFA012020F0DDF9422020F0FAF94D
:10AF3000002020F0F7F90546002020F0D3F9022088
:10AF400020F04EF921F012FB00F59C7020F048FA39
:10AF5000012020F0C7F9422020F0E4F9002020F081
:10AF6000E1F90446002020F0BDF90E4B00211878CD
:10AF7000123C63F027FEE4B20B482AF089F8012C5A
:10AF800001D9002038BDA5F11203DBB2012B01D994
:10AF9000012038BD054B00221A70012038BD00BFCA
:10AFA00060930120046900201C990120C0680020E2
:10AFB00038B5334B1B689B6E9847002020F020FB70
:10AFC000002020F00DF921F0D1FA3E3020F008FAEF
:10AFD000012020F087F920F035F91D2020F0A2F99A
:10AFE000072020F09FF9412020F09CF9002020F05C
:10AFF00099F9002020F096F90546002020F072F91A
:10B00000022020F0EDF821F0B1FA00F59C7020F05C
:10B01000E7F9012020F066F920F014F91D2020F056
:10B0200081F9072020F07EF9412020F07BF90020F3
:10B0300020F078F9002020F075F90446002020F077
:10B0400051F9104B0021187863F0BCFD0E482AF02E
:10B050001FF80E4B9B7B1B0143F00403242CDBB237
:10B0600003D0A34207D0002038BD242D03D0242BC9
:10B0700018BF0120F8D1064B00221A70012038BDFC
:10B0800060930120046900201C99012048760A0081
:10B09000C0680020704700BF0120704708B51DF050
:10B0A000ADFEBDE80840014829F0F2BF1C9901201F
:10B0B00000B50E4B0E4A1B6883B00021ADF804307A
:10B0C00001A81B0C11708DF806301DF075FD1821BC
:10B0D00008481DF0B1FD01E065F04CFA1DF0E2FDFD
:10B0E0000028F9D0012003B05DF804FB505E0A008F
:10B0F000C8780020F077002070B5012182B01820B8
:10B1000063F0E4FD0121182063F05CFD264B274E1F
:10B110001B689B6E9847022130462AF039F80021BF
:10B12000182063F0D3FD232130462AF0DFF801AD6B
:10B130000DF10704FF2130462AF0D8F8AC42207008
:10B1400004F1FF34F6D10121182063F0BFFD002186
:10B15000182063F037FD154829F09AFF9DF8043058
:10B16000E72B02D0002002B070BD9DF80530E72B20
:10B170000DD0312BF6D19DF80630FA2BF2D19DF887
:10B180000700A0F1B600B0FA80F04009EBE79DF8A7
:10B190000630E72BE6D19DF80700A0F1E700B0FAF2
:10B1A00080F04009DFE700BF609301201C99012077
:10B1B00010B5094C23784BB1084818211DF0A6FDA5
:10B1C00018B1074A13680133136010BD1DF08AFDE2
:10B1D00001232370F0E700BFC878002078770020B3
:10B1E000A8780020421C18D038B50C4D95F90030D5
:10B1F0008342044610D00A4B0A48D3E90132E1B237
:10B2000002FB013181422CBF022000201DF058FCBE
:10B21000054B2C7000221A7038BD7047C2680020A0
:10B220006077002000A05A32C878002010B5414B4A
:10B23000414C1B6882B09B6E98471DF0FDFB236854
:10B240001B7903BB0C201DF073FCC0201DF092FC89
:10B250003A4B1B68ADF8043001A81B0C8DF8063082
:10B260001DF0CAFC2468364BA17800208A1E60704D
:10B2700018705970082A54D8DFE802F01B242D36C4
:10B280003F534851090000201DF052FCDDE72D4AD4
:10B290002D485A6001211722986099701A732B4922
:10B2A0002B4B2C482C4A08601A601DF01BFD02B085
:10B2B00010BD2A4A2A485A6041211E22986099707E
:10B2C0001A73ECE7274A26485A6018211E22986014
:10B2D00099701A73E3E7244A1B485A6001210A2235
:10B2E000986099701A73DAE7204A17485A6001216A
:10B2F0001422986099701A73D1E71D4A12485A6057
:10B3000001211122986099701A73C8E7194A0E48F2
:10B310005A6001211E22986099701A73BFE7164A7D
:10B32000F5E7164A08485A6002210E229860997083
:10B330001A73B4E76093012038750020505E0A004C
:10B3400060770020A0D1E336400D0300A0780020F4
:10B350009C780020092B0400811F0400C07AC635A8
:10B36000801A0600404FA836D0B3CF3300D6C8337A
:10B370002028051C801C9E33401A9C3640AEBF33EB
:10B38000014B01221A707047CA78002010B50B4C8F
:10B3900001222068002127F0B5FA20689FED080AF5
:10B3A00041F2883128F000FA00222068114627F087
:10B3B000CDFABDE81040034829F06ABED0780020DD
:10B3C000000000001C9901202DE9F04FDFF80CA2CD
:10B3D000DAF8003083B0002B37D0DFF804827949E7
:10B3E000D8F8003000260E70D97F072905D8DFE88D
:10B3F00001F00604CB0406C304064FF6FF769C7AE0
:10B40000002C7DD0022C47D0DFF8D8B100256E4F3C
:10B41000DFF8C491002493F8231017F804C0012921
:10B4200000F09180032940F08880684A115D0BEBA1
:10B4300005008CEA01014170D87F072809D8DFE8B0
:10B4400000F01308080813240813002003B0BDE817
:10B45000F08F93F82330012B00F08680304624F0E3
:10B4600045F9D8F800300646DAF800100134E4B2A5
:10B470008C4205F10105CED3DA7F072A21D8DFE817
:10B4800002F02A2020202A54202A0DF1070024F05F
:10B49000F9F9D8F80030E7E79869DFF848B1040E09
:10B4A000050C8BF80140040A8BF804008BF802505D
:10B4B0008BF80340587F8BF80500052966D00525D9
:10B4C000A5E793F82330012B66D00BEB0503320A76
:10B4D00002359E705A70EAB23D4B8BF80020186816
:10B4E0003C4903681C680023A0470028ADD10146F1
:10B4F000802238486BF052F9012003B0BDE8F08F8C
:10B500003046312124F0F2F8FA2124F0EFF8B62188
:10B5100024F0ECF8DAF80050D8F800300646002D98
:10B520007FF472AFDFF8BCB0A6E70BEB05039DF824
:10B5300007205A700135EAB2CEE70BEB05006146F1
:10B5400080F801C078E74FEA1C1E0BEB050019F8E4
:10B550000EE080F801E001350CF00F010BEB050067
:10B5600019F80110417067E73046614624F0BEF8D3
:10B57000D8F80030064677E79C7A71208DF80700EE
:10B58000002C7FF43FAFBBE7002638E79DF807109B
:10B590008BF8061006253AE70F4AC6F30B34C6F3BC
:10B5A0000320C6F3031106F00F060BEB0503175D2E
:10B5B000145C505C915D5F700535EAB29C70D87088
:10B5C000197189E7C9780020F07700201C780A00FB
:10B5D000D078002059790020A45F0A0074770020F9
:10B5E000C4680020587900202DE9F047634B644D72
:10B5F0001B68644E9B6E8AB098472A79EB79624942
:10B600000891FF2A08BF4FF0FF324FF48071FF2BE3
:10B610004FF0480014BF98464FF0FF380792ADF83E
:10B62000241064F089FF08AF044697E8030002ABDA
:10B63000079ADFF8A8C183E80300CDF80080EB7813
:10B640002978CDF804C0204624F0B0FA4F4B34607E
:10B650001B681B780B2B4FF4C8701AD064F06CFF7A
:10B660004B4C3168824625F021FAC4F800A0DFF87F
:10B670007091484DD9F800104A78531E062B2DD8EA
:10B68000DFE813F0370040002C002C00BE01DE0183
:10B69000110064F051FF3E4C3168824624F0A8FE50
:10B6A000C4F800A0E3E73C483C4E3D4B2E603D4EC5
:10B6B00006603D48186089783C4E8B1E7170327070
:10B6C000082B00F2BE82DFE813F094028F02B20270
:10B6D000A8029E02BC02990285027B022E4A3448CF
:10B6E00028602F4B33481060334A1A6000224A709A
:10B6F000E1E72948314E2A4B2E60314E0660314831
:10B700001860D8E72448264B2F4E06602F4A304851
:10B71000264E18602A6089782E4B717002212E48BF
:10B720003170736001211B23B060B1703373DFF897
:10B73000B48098F80030013B1C2B5FD8DFE813F091
:10B740009E015E005E005E005E005E005E005E00C8
:10B750005E005E005E005E005E005E0014015E0042
:10B760005E009E015E005E0014015E005E005E00F1
:10B770005E005E005E005E00140100BF6093012069
:10B7800004690020CC78002080841E00A47800206A
:10B79000D0780020C4680020A078002068740A00D7
:10B7A0009C780020E10F0400710D040060770020F8
:10B7B00068770A00092B0400811F0400A4770A009F
:10B7C000D13A0400C9340400A5430400E0770A001C
:10B7D0001543040008E6D333400D03001C990120F3
:10B7E0003875002004600020CDCCCC3F33331C439F
:10B7F0009A9999400000C8429A9919425FED061A39
:10B80000D37A012B00F0B6801FED081A1FED080A4D
:10B81000F1EE040A1021504628F042FE2B68206801
:10B8200093F821205FED0D7A03681FED0D0A5B6B25
:10B83000012A18BFB0EE670A98472B68206893F872
:10B840002230013BDBB2022B97BFAE4A9FEDAE0A1E
:10B8500002EB830393ED000A03689B6B98472B6808
:10B86000206893F82430072B97BFA84A9FEDA80AB9
:10B8700002EB830393ED000A27F08AFB206803683C
:10B8800000211B6C98472A682068517B0368C90017
:10B890005B6D9847206803680221DB6B98470123A2
:10B8A00000220093114641F22103206828F026F976
:10B8B0002B68587F997F93F8202093F82330014418
:10B8C0001144012B08BF4900C9B2206827F096FE39
:10B8D000206827F039FE29688A7D022A00F0F1806D
:10B8E000206803680E311B6D9847D9F800301B792A
:10B8F000002B40F0838096F90C30162B00F3DF808C
:10B9000007EE903AF8EEE77AB3EE017AF4EEC77AF2
:10B91000F1EE10FA88BFF0EE477AFDEEE77ACDED52
:10B92000077A9DF91C10206803689B6C984798F86B
:10B930000030122B00F0B4801B2B00F0A280012BF2
:10B9400000F0AE80734A7449206828F0EFF920684F
:10B95000012128F0D9F9206870490368D3F8A43090
:10B9600098470AB0BDE8F087D37A012BF0EE081AA9
:10B970007FF44AAF00220823CDE900329FED680A28
:10B9800012235046F0EE610A0722092128F016FC26
:10B99000737B012B00F0A8809FED620ADFED627AD5
:10B9A000062B08BFB0EE670A0021206827F000F8D8
:10B9B00000220721206827F005F9002205212068D0
:10B9C00027F06EF92B682068997B27F0A1FA206890
:10B9D000036808215B6D9847206828F043F901212E
:10B9E000009141F22103206841F60F5228F086F8B9
:10B9F000D9F800301B79002B3FF47DAF022192E78C
:10BA00004A4A4B484B4B28604B4810604B4A1A60DF
:10BA10008B784B4E4B49737005223270023B0122EA
:10BA2000B160B270082B00F29B80DFE813F0600079
:10BA300060009900990060009900BB00B400C2004A
:10BA40003A4A41483B4B286040481060404A1A60DF
:10BA50008A783B4E0621931E727042F2107231704A
:10BA6000B26001211E22B1703273082B46D8DFE884
:10BA700003F08A8682457E4545458E00DFED351A06
:10BA8000BEE6002204200A210B23CDE90031CDE9D6
:10BA900002200492206809230F2128F0CFFF56E7E7
:10BAA0000022042001210323CDE90031CDE9022049
:10BAB000049220680223072128F0C0FF47E71121E4
:10BAC00031E70B7B2068012B0CBFAA2355238DF88F
:10BAD00020308DF82130CB89ADF82230036839460B
